:020000040800F2
:1000000000400020A92B0008450200084902000812
:100010004D020008510200085502000800000000CF
:10002000000000000000000000000000590200086D
:100030005D0200080000000061020008650200087F
:10004000F52B0008F52B0008F52B0008F52B000810
:10005000F52B0008F52B0008F52B0008F52B000800
:10006000F52B0008F52B0008F52B0008F52B0008F0
:10007000F52B0008F52B0008F52B0008F52B0008E0
:10008000F52B0008F52B0008F52B0008F52B0008D0
:10009000F52B0008F52B0008F52B0008F52B0008C0
:1000A000F52B0008F52B0008F52B0008F52B0008B0
:1000B000F52B0008F52B0008F52B0008F52B0008A0
:1000C000F52B0008F52B0008F52B0008F52B000890
:1000D000F52B0008F52B0008F52B0008F52B000880
:1000E000F52B0008F52B0008F52B0008F52B000870
:1000F000F52B0008000000000000000000000000D8
:0C01000000000000000000005FF808F1A3
:10010C00FC2B0008000000203C0000203C000020DC
:10011C004800002082B00190019B034A13601368D1
:10012C00002BFCD102B070473C000020034B1A6836
:10013C0012B11A68013A1A60704700BF3C000020E7
:10014C0030B5204C89B023680BB109B030BD042008
:10015C00012101F0B1F901214FF4007001F0B8F95F
:10016C00684600F03BFE01253F22032369461648F2
:10017C0000928DF804308DF8055000F0CBFD13483B
:10018C0000F0A6F902A800F0DDF902A90F4800F072
:10019C00B3F9284600F026FA29460C4800F0ECF991
:1001AC000A484FF4807100F0A7FB0028F8D10748EB
:1001BC00402100F0A1FB0028F9D00123236009B0F5
:1001CC0030BD00BF44000020000802400024014064
:1001DC00FFF7B6BF38B51121054600221548072395
:1001EC0000F00EFA134800F097FA1248022100F0C2
:1001FC0083FB0028F9D00F4800F0BEFA29460446CC
:10020C0000220C48072300F0FBF90A4800F084FA9E
:10021C000848022100F070FB0028F9D0054800F0D6
:10022C00ABFA41F6B82303FB00F090FBF4F080B27C
:10023C0038BD00BF00240140704700BFFEE700BF7F
:10024C00FEE700BFFEE700BFFEE700BF704700BF40
:10025C00704700BF704700BFFFF768BF3F4B30B41B
:10026C001A683F4842F480721A609C680021204052
:10027C009860186882B020F0885020F00110186047
:10028C0018681A4620F480201860986820F47D00C5
:10029C009860D96000910191196841F001011960D1
:1002AC0003E0009BB3F5A06F06D0136803F00203C4
:1002BC000193019B002BF4D0284B1B6813F0020315
:1002CC0018BF01230193019B012B06D0254B4FF046
:1002DC0000629A6002B030BC7047234B1F481A680A
:1002EC00224942F004021A601A684FF4006442F08A
:1002FC0002021A601D680A4645F001051D60436A3A
:10030C0043F0805343620C605368D906FCD4134B02
:10031C009A6819469A609A689A609A689A609A687C
:10032C0022F47D029A609A6842F488029A601A68F4
:10033C0042F080721A600B68084A9B01FBD59368E7
:10034C00114623F003039360936843F00303936017
:10035C008B6803F00C030C2BFAD1B7E70038024082
:10036C000CC0FF8800ED00E0003C02400070004033
:10037C001F4B10B49B6803F00C030C2B08D8DFE860
:10038C0003F0070707071C0707071F0707072200CB
:10039C00174B4FF400415A68164BC2F342320132EC
:1003AC0001FA02F212495DF8044B8968C1F303119A
:1003BC001944097BCA40DA6170470F4A0D4BF1E7CB
:1003CC000E4A0C4BEEE70A490A4B8A688C68C2F35A
:1003DC0083429A5C8868D2B2C00354BF064807486F
:1003EC00C4F3815100FB02F20131B2FBF1F2D9E707
:1003FC0000380240000000200024F40000127A00B3
:10040C0040F0BF60024B40F40030D860704700BF32
:10041C0000ED00E0C37810B463B90378012103F058
:10042C001F0291405B09174A203342F823105DF8F4
:10043C00044B7047144B4478DB680F22DB43C3F347
:10044C000223C3F10401C9B204FA01F142FA03F325
:10045C008478C9B203EA040203780A43120103F157
:10046C006043D2B203F5614383F800230378012182
:10047C0003F01F029140034A5B0942F823105DF818
:10048C00044B704700E100E000ED00E021F060411A
:10049C0021F07F01014B08439860704700ED00E0AC
:1004AC00044B1A6919B922EA00001861704710430D
:1004BC001861704700ED00E0044B04281A680CBF6B
:1004CC0042F0040222F004021A60704710E000E0CF
:1004DC0008B5084B984200D008BD4FF400700121BC
:1004EC0001F01AF8BDE808404FF40070002101F04B
:1004FC0013B800BF0024014043680A6823F040731E
:10050C0070B423F480730C79134343EA04234360DF
:10051C00CD680C6986688A68094B2C4322433340AA
:10052C004E79134343EA460383600B7D026B013B18
:10053C00DBB222F0F87242EA0353036370BC7047DB
:10054C00FDF7FFC000234FF040710122C16002751E
:10055C00036003714371836003617047034B01684F
:10056C005A6822F440320A435A607047002701400F
:10057C0000230360704700BF836819B923F001039F
:10058C008360704743F0010383607047836819B937
:10059C0023F004038360704743F0040383607047C7
:1005AC0043681AB923EA010141607047194341605D
:1005BC00704700BF836823F0F003194381607047D4
:1005CC00436823F4400323F40073194341607047DC
:1005DC008162C262704700BF436823F01F03194356
:1005EC0041607047054B5A6818B922F400025A60F2
:1005FC00704742F400025A60704700BF0027014068
:10060C001D2970B422D9A1F11E0404EB4404072661
:10061C00A64003FA04F4C56D25EA06032343C3651B
:10062C00062A25D90C2A41D9122A66D9182A57D953
:10063C0070BC193A02EB82021F23934001FA02F2BA
:10064C00016B21EA03031A430263704713291DD976
:10065C00A1F1140404EB44040726A64003FA04F4A5
:10066C00C568062A25EA060343EA0403C360D9D801
:10067C0070BC013A02EB82021F23934001FA02F292
:10068C00016C21EA03031A430264704709291BD940
:10069C00A1F10A0404EB44040726A64003FA04F46F
:1006AC00056925EA060323430361B9E7073A02EB20
:1006BC0082021F23934001FA02F2C16B21EA030369
:1006CC001A43C26370BC704701EB41040726A64075
:1006DC0003FA04F4456925EA0603234343619FE7C3
:1006EC00133A02EB82021F23934001FA02F2416B90
:1006FC0021EA03031A434263E4E70D3A02EB820258
:10070C001F23934070BC01FA02F2816B21EA0303B0
:10071C001A438263704700BF836843F08043836051
:10072C00704700BF8068C0F380707047836819B948
:10073C0023F480638360704743F480638360704765
:10074C00836819B923F002038360704743F00203F6
:10075C00836070474368013923F4604343EA4133B3
:10076C0043607047436819B923F4006343607047D2
:10077C0043F4006343607047806D80B2704700BFE4
:10078C00836819B923F480738360704743F48073D2
:10079C0083607047836819B923F4007383607047D2
:1007AC0043F40073836070471D2970B42DD813294E
:1007BC001DD8092937D801EB41040726A64003FAB6
:1007CC0004F4456925EA060323434361436C023272
:1007DC00C3F30154121BD2B202EB82021F249440C9
:1007EC00914023EA04030B43436470BC7047A1F1AE
:1007FC00140404EB44040726A64003FA04F4C56869
:10080C0025EA06032343C360E0E7A1F11E0404EBD1
:10081C0044040726A64003FA04F4C56D25EA060332
:10082C002343C365D2E7A1F10A0404EB4404072671
:10083C00A64003FA04F4056925EA06032343036181
:10084C00C4E700BF436C013923F4401343EA01535E
:10085C004364704782B0002301930190019B1944BB
:10086C000191019B1A6002B0704700BF836823F4AA
:10087C007023194381607047836823F44013194334
:10088C0081607047836843F480038360704700BFC6
:10089C008068C0F380507047436819B923F48063B3
:1008AC004360704743F4806343607047436819B9F1
:1008BC0023F480534360704743F480534360704784
:1008CC0082B0002301930190019B303319440191B4
:1008DC00019B186880B202B0704700BF0123C9B2F7
:1008EC0003FA01F143681AB923EA01014160704728
:1008FC0019434160704700BF036819420CBF0020C8
:10090C0001207047C9430160704700BF436800680D
:10091C0010EA112007D0C9B2012202FA01F11942E2
:10092C000CBF0020012070476FEA11210160704755
:10093C00036833494FF6FE721A4088424FF00003A9
:10094C000260036043608360C36044D02D4B9842C7
:10095C0025D02D4B984230D02C4B984234D02C4B78
:10096C00984223D02B4B98423BD02B4B98420FD024
:10097C002A4B98423CD02A4B984210D0294B984293
:10098C001BD0294B98421FD0284B98420ED0704751
:10099C0053F87C2C42F0706243F87C2C704753F86F
:1009AC00182C42F0F00243F8182C704753F8542CD2
:1009BC0042F4702243F8542C704753F82C2C42F418
:1009CC00706243F82C2C704753F8402C42F4704260
:1009DC0043F8402C7047164B5A6842F00F025A608D
:1009EC00704753F8682C42F4700243F8682C704737
:1009FC0053F8042C42F00F0243F8042C704700BF4C
:100A0C00086002401C6002403060024044600240BA
:100A1C00586002406C6002408060024008640240F2
:100A2C001C6402403064024044640240586402403A
:100A3C00006002408A68F0B40C6A0B6914434A697E
:100A4C001C438B69CE69224307684D6A13438C6A39
:100A5C001E43354327F4FF43CE680F684A682C4386
:100A6C0023F070032343036046608760C260F0BCD0
:100A7C00704700BF0023036043608360C360036161
:100A8C0043618361C361036243628362704700BF49
:100A9C0029B902684FF6FE73134003607047036870
:100AAC0043F001030360704741607047406880B2B7
:100ABC00704700BF03681AB923EA0101016070474F
:100ACC0019430160704700BFC30054BF034B044B74
:100ADC001B6803420CBF00200120704700600240DD
:100AEC0000640240C30054BF014B024B5860704776
:100AFC000060024000640240C30054BF034B044B2F
:100B0C001B6803420CBF00200120704700600240AC
:100B1C0000640240C30054BF014B024B5860704745
:100B2C000060024000640240044B00226FF07F41E1
:100B3C001A605A609A60DA6059617047000401408B
:100B4C00837930B42BB31D4B01681A68CC43224017
:100B5C001A605D6802792C4002F180425C6002F5FB
:100B6C008232156844792943116002689868D14330
:100B7C0008409860D868102C01EA0001D96014D0A4
:100B8C0004F1804303F58233196830BC0A431A60C0
:100B9C0070470379016803F1804303F582331A68C7
:100BAC0030BC22EA01021A607047996830BC1143CC
:100BBC009960D9680A43DA60704700BF00040140AD
:100BCC0000230C224271036003718371704700BFD4
:100BDC00024B1A6910431861704700BF00040140B2
:100BEC00034B5B6918420CBF00200120704700BF0B
:100BFC0000040140014B5861704700BF00040140E4
:100C0C00034B5B6918420CBF00200120704700BFEA
:100C1C0000040140014B5861704700BF00040140C3
:100C2C0008B5344B98421FD0334B984226D0334BE7
:100C3C0098422DD0324B984234D0324B98423BD014
:100C4C00314B984242D0314B984249D0304B98426C
:100C5C0000D008BD2020012100F052FCBDE8084066
:100C6C002020002100F04CBC0120014600F048FC83
:100C7C00BDE808400120002100F042BC0220012107
:100C8C0000F03EFCBDE808400220002100F038BC1A
:100C9C000420012100F034FCBDE8084004200021B0
:100CAC0000F02EBC0820012100F02AFCBDE8084011
:100CBC000820002100F024BC1020012100F020FCB1
:100CCC00BDE808401020002100F01ABC4020012192
:100CDC0000F016FCBDE808404020002100F010BCDC
:100CEC008020012100F00CFCBDE808408020002190
:100CFC0000F006BC00000240000402400008024064
:100D0C00000C02400010024000180240001C02407F
:100D1C000014024000222DE9F00713460E6801274B
:100D2C004FF0030804E00133102B02F102022FD024
:100D3C0007FA03F404EA0605A542F4D108FA02F412
:100D4C0091F804C0D0F800900CFA02FAE44304EADB
:100D5C000909C0F80090D0F800900CF1FF3C5FFA44
:100D6C008CFC4AEA0909BCF1010FC0F8009012D9B9
:100D7C0091F807C0C5680CFA02FC2C40C460C56829
:100D8C0001334CEA0504102BC46002F10202CFD1EE
:100D9C00BDE8F007704791F805C091F806900CFA81
:100DAC0002FC09FA03F9D0F808A004EA0A0AC0F810
:100DBC0008A0D0F808A04CEA0A0CC0F808C0B0F89B
:100DCC0004C01FFA8CFC2CEA05058580B0F804C021
:100DDC0049EA0C05ADB28580CAE700BF00234FF687
:100DEC00FF720260037143718371C371704700BF5E
:100DFC0082B04FF480330193019B0B430193019B11
:100E0C00C361C161019BC361C3690193C369019350
:100E1C0002B07047038A19420CBF002001207047B2
:100E2C00008A80B2704700BF838A19420CBF002031
:100E3C0001207047808A80B2704700BF01837047E1
:100E4C00418370470AB9418370470183704700BFE3
:100E5C0081827047838A9BB259408182704700BF60
:100E6C0001F0070310B49B000F249C4002FA03F31B
:100E7C00C90800EB8100026A22EA04040462026AD7
:100E8C005DF8044B13430362704700BF08B50120A3
:100E9C00014600F041FBBDE808400120002100F0B4
:100EAC003BBB00BF044B00221A605A609A60DA60A8
:100EBC001A615A619A617047047C0040014B1860BA
:100ECC00704700BF00000140024B186800F44070EE
:100EDC00704700BF00000140054B5A6818B922F05A
:100EEC0001025A60704742F001025A60704700BF1D
:100EFC000000014001F003039B000F229A4000FA0E
:100F0C0003F301F0FC0101F1804101F580318868A7
:100F1C0020EA02028A608A6813438B60704700BF24
:100F2C00034B1A6822F4403210431860704700BF1C
:100F3C00047C00400F4B42031B6840EA030344BF90
:100F4C0023F00F030B43020344BF23F0F00343EAE7
:100F5C000113C20244BF23F4706343EA01238202EB
:100F6C0048BF23F47043034A48BF43EA013313607C
:100F7C00704700BF047C0040044B1A6819B922EA80
:100F8C00000018607047104318607047007C0040E8
:100F9C00044B1A6811B910431860704722EA00001C
:100FAC0018607047007C0040C30F20F0004029B14E
:100FBC005BB10B4B5A6810435860704753B9084BE0
:100FCC009A6822EA000098607047054B9A681043B3
:100FDC0098607047024B5A6822EA000058607047CC
:100FEC00047C0040054B5A6818B922F000425A6044
:100FFC00704742F000425A60704700BF047C0040CA
:10100C0001282C4B0FD0022813D0032818D0042809
:10101C002BD0052823D0062837D0002A30D19A6946
:10102C001143996170478AB1DA6822EA0101D960EB
:10103C0070477AB1DA68C94302EA0141D960704756
:10104C00D2B11A6922EA010119617047DA681143B9
:10105C00D9607047DA6842EA0141D960704702B33F
:10106C005A6922EA010159617047AAB11A69C94348
:10107C0002EA0141196170471A69114319617047FD
:10108C009A6922EA01019961704772B15A69C943A0
:10109C0002EA0141596170471A6942EA014119613A
:1010AC0070475A691143596170475A6942EA0141C4
:1010BC0059617047047C004008B54FF08050012105
:1010CC0000F036FABDE808404FF08050002100F0E7
:1010DC002FBA00BF014B1860704700BF20000E42B2
:1010EC00034B1A6822F0E00210431860704700BFEF
:1010FC0000700040014B1860704700BF10000E429A
:10110C00044B82B00344002201920193019B1960AD
:10111C0002B07047A0000E42014B1860704700BF30
:10112C0028000E42014B1860704700BF24000E428D
:10113C00044B1A6822F4C052104320F00C021A60BF
:10114C00704700BF00700040094B1A6838B922F490
:10115C0080421A601A6822F001021A60704742F04D
:10116C0001021A601A6842F480421A60704700BF8C
:10117C00007000400A4A10B414680A4B24F00304AF
:10118C00204310601A69012922F004021A6103D06D
:10119C0020BF5DF8044B704730BF5DF8044B7047BF
:1011AC000070004000ED00E00C4A10B414680C4BC9
:1011BC0024F00304204310601A69012942F0040250
:1011CC001A6108D020BF064B5DF8044B1A6922F057
:1011DC0004021A61704730BFF5E700BF0070004091
:1011EC0000ED00E0074B084A196841F00401196052
:1011FC00196841F002011960136943F0040313618B
:10120C0030BF70470070004000ED00E0034B5B689E
:10121C0018420CBF00200120704700BF0070004036
:10122C00024B1A6842EA8000186070470070004058
:10123C000C4B0D4A1868002140F4807018609868B7
:10124C0002409A601A6822F0885222F001121A6049
:10125C001A6822F480221A609A6822F47D029A603D
:10126C00D9607047003802400CC0FF88024B002246
:10127C001A701870704700BF0238024082B0002309
:10128C000B4A019313689B030CD4019B013301930C
:10129C00019BB3F5A06FF5D1054B1868C0F3404026
:1012AC0002B07047019B01330193019BF4E700BF2F
:1012BC0000380240014B1870704700BF07380240DD
:1012CC00034B5A6822F4604210435860704700BFC9
:1012DC0000380240014B1860704700BF20004742A5
:1012EC00034B5A6822F4F85242EA002058607047C7
:1012FC0000380240014B1860704700BF00004742A5
:10130C00024B00221A701870704700BF353802402B
:10131C00014B1860704700BF800647420243024BE6
:10132C0011431970704700BF0A380240014B186016
:10133C00704700BF60004742014B1860704700BF08
:10134C0070004742014B1860704700BFAC06474223
:10135C00014B0143197070470B380240034B9A68DC
:10136C0022F0030210439860704700BF003802401F
:10137C00024B986800F00C00704700BF0038024028
:10138C00034B9A6822F0F00210439860704700BF3C
:10139C0000380240034B9A6822F4E06210439860D4
:1013AC00704700BF00380240034B9A6822F4605229
:1013BC0042EAC0009860704700380240284B30B4B5
:1013CC009B6803F00C030C2B08D8DFE803F007072D
:1013DC0007072F0707072B0707073300204B4FF48E
:1013EC0000415A681F4BC2F34232013201FA02F239
:1013FC0002601B498C68C4F303141C44247BE24038
:10140C0042608C68C4F302241C44247B22FA04F44A
:10141C008460896830BCC1F3C2210B441B7BDA4069
:10142C00C2607047104A0F4B0260E2E70F4A0D4B47
:10143C000260DEE70A490B4B8A688D68C2F383426F
:10144C009A5C8C68D2B2E40354BF084C064CC5F3CA
:10145C00815104FB02F20131B2FBF1F20260C8E7E8
:10146C00003802402000002000127A000024F40012
:10147C0000F44032B2F5403F07D1084B00F0C040B9
:10148C00196821F0C04108431860044B596B21F4D2
:10149C0040315963596B0A435A6370470038024014
:1014AC00014B1860704700BFD8064742014B1860CB
:1014BC00704700BFDC064742044BDA6919B922EACF
:1014CC000000D86170471043D86170470038024063
:1014DC00044B1A6A19B922EA0000186270471043CB
:1014EC001862704700380240044B5A6A19B922EA54
:1014FC000000586270471043586270470038024031
:10150C00044B1A6919B922EA00001861704710439C
:10151C001861704700380240044B5A6919B922EA25
:10152C000000586170471043586170470038024002
:10153C00044B9A6919B922EA00009861704710436C
:10154C009861704700380240044B9A6A19B922EA34
:10155C000000986270471043986270470038024050
:10156C00044BDA6A19B922EA0000D86270471043BA
:10157C00D862704700380240044B1A6B19B922EA42
:10158C00000018637047104318637047003802401E
:10159C00044B1A7819B922EA0000187070471043EE
:1015AC00187070470D3802404309012B054B00F0B1
:1015BC001F000CBF1B685B6B23FA00F000F00100EE
:1015CC00704700BF00380240024B5A6B42F08072E9
:1015DC005A63704700380240034BDB6818420CBF5B
:1015EC0000200120704700BF00380240014B1870EA
:1015FC00704700BF0E38024070B43A49002385B0E2
:10160C00CA205322019348624A620293CB6858065F
:10161C0019D44FF0FF33CB6000E04AB9CA68029B83
:10162C0002F0400201330293029BB3F5005FF4D148
:10163C002C4BDB68590606D400202A4BFF225A6239
:10164C0005B070BC7047274B002142F201121960A3
:10165C005A609A68194602F007029A6000E04AB98B
:10166C00CA68019B02F0040201330193019BB3F59C
:10167C00005FF4D11B4BDA685207DDD51A4C0022FF
:10168C0053214FF6FF75CA209E689A605D611C61FC
:10169C009A61DA611A62DA62DA635A649A64DA601D
:1016AC001A64039258625962DA68194622F0A00251
:1016BC00DA6000E04AB9CA68039B02F020020133E9
:1016CC000393039BB3F5004FF4D1064BD86810F08D
:1016DC00200002D1FF225A62AFE7FF225A6201209A
:1016EC00ABE700BF00280040FF007F0010B41E498C
:1016FC00CA24002383B053224C624A620193CB6804
:10170C0004465B061AD44FF0FF33CB6000E04AB9B5
:10171C00CA68019B02F0400201330193019BB3F5AF
:10172C00005FF4D1104BD868C0F3801030B90E4B69
:10173C00FF225A6203B05DF8044B70470A4B01203C
:10174C009A6822F040029A60996822680A439A606B
:10175C00A2681A611A69616842EA01421A61DA6880
:10176C0022F08002DA60E2E70028004000217F22AC
:10177C00FF2380E80E007047044B20B9CA21532286
:10178C0059625A627047FF225A6270470028004023
:10179C00002382B00E490193CB685B0614D44FF042
:1017AC00FF33CB6000E04AB9CA68019B02F04002EB
:1017BC0001330193019BB3F5005FF4D1044BD8685E
:1017CC00C0F3801002B07047012002B0704700BF18
:1017DC0000280040024BDA6822F08002DA60704781
:1017EC0000280040104BCA21532282B000200190E7
:1017FC0059625A62DA68194622F0A002DA6000E0F7
:10180C004AB9CA68019B02F0200201330193019B83
:10181C00B3F5004FF4D1044BFF22D8685A62C0F3E1
:10182C00401002B0704700BF0028004010B41D49A2
:10183C00002383B0CA2453224C624A620193CB68C2
:10184C005B061BD44FF0FF33CB6000E04AB9CA688B
:10185C00019B02F0400201330193019BB3F5005F41
:10186C00F4D1104BDB68C3F380133BB918460D4B16
:10187C00FF225A6203B05DF8044B704758B9094B0C
:10188C009A6822F010029A60064B0120DA6822F066
:10189C008002DA60EBE7034B9A6842F010029A6020
:1018AC00F2E700BF002800400A4B5322CA215962BC
:1018BC005A629A6830B902F0DF029A60054BFF2237
:1018CC005A62704742F020029A60024BFF225A6221
:1018DC00704700BF0028004030B4524B82B0002843
:1018EC0035D19C6814F0400465D1CC700B78002283
:1018FC00092B07D90A3BDBB20132092BD2B2F9D83A
:10190C001201D2B24878134309284FEA034340F23C
:10191C00868000220A38C0B201320928D2B2F9D826
:10192C001201D5B28A782843092A4FEA00204FF0D9
:10193C00000107D90A3AD2B20131092AC9B2F9D841
:10194C000901C9B21C4304430A4322430CE09B68BF
:10195C0013F040032CD1CB704A78087812028978A6
:10196C0042EA00420A431A432E480023CA25532157
:10197C00456241620093C3685B061FD44FF0FF338E
:10198C00C36000E049B9C168009B01F0400101331C
:10199C000093009BB3F5005FF4D1224BD868C0F3E1
:1019AC00801058B91F4BFF225A6202B030BC7047EE
:1019BC00CB781B04D0E7CC78240497E7194B02F0C2
:1019CC007F3222F0FE421A60DA6822F08002DA607E
:1019DC009A6812F0200201D00120E3E75321CA20BB
:1019EC00019258625962DA68194622F0A002DA6054
:1019FC0000E04AB9CA68019B02F02002013301934E
:101A0C00019BB3F5004FF4D1064BD86810F02000C1
:101A1C0002D1FF225A62C5E7FF225A62DCE7002599
:101A2C0080E700BF002800400023C37003704370A0
:101A3C0083707047154B70B41B6803F4800603F079
:101A4C007F04C3F30542360CC3F30623CE708C70AF
:101A5C000A704B70B8B925091609180905EB8505EC
:101A6C0004F00F0406EB860602F00F0200EB800078
:101A7C0003F00F0304EB450502EB460603EB4003B2
:101A8C008D700E704B7070BC704700BF002800400A
:101A9C00014B986A5B6870470028004030B482B0F4
:101AAC00002838D14B78DA0604D523F010030A331A
:101ABC00DBB24B70CA780020092A07D90A3AD2B295
:101ACC000130092AC0B2F9D80001C0B20243092B77
:101ADC004FEA02427ED900200A3BDBB20130092BCF
:101AEC00C0B2F9D80001C5B288782B4309284FEA57
:101AFC0003234FF0000407D90A38C0B20134092877
:101B0C00E4B2F9D82401E4B20D78204342EA453519
:101B1C001D43054309E04D78CA782D028B7845EAC0
:101B2C00024508781D4345EA40352B490023CA2459
:101B3C0053224C624A620093CB685B0619D44FF077
:101B4C00FF33CB6000E04AB9CA68009B02F0400248
:101B5C0001330093009BB3F5005FF4D11E4BD868A2
:101B6C00C0F3801028B91C4BFF225A6202B030BC63
:101B7C007047194B25F07F4020F0C0005860DA68A0
:101B8C0022F08002DA609A6812F0200201D0012063
:101B9C00E9E75321CA20019258625962DA68194662
:101BAC0022F0A002DA6000E04AB9CA68019B02F098
:101BBC00200201330193019BB3F5004FF4D1064B86
:101BCC00D86810F0200002D1FF225A62CBE7FF2226
:101BDC005A62DCE7002587E7002800400123002239
:101BEC00C270037083704370704700BF144BF0B425
:101BFC005B6803F03F04C3F34236C3F30742C3F3FD
:101C0C0004230E708C70CA704B70B8B91E0925096C
:101C1C001009B70005EB850504F00F0403F00F0362
:101C2C003E4400EB800002F00F0204EB450503EB91
:101C3C00460302EB40008D704B70C870F0BC7047CF
:101C4C0000280040F0B43E4B002849D19E6816F0A5
:101C5C0040066BD1D6701378092B6AD900200A3B49
:101C6C00DBB20130092BC0B2F9D80001C4B25078F4
:101C7C00234309284FEA03435DD900240A38C0B234
:101C8C0001340928E4B2F9D82401E7B29478384336
:101C9C00092C4FEA00274FF0000507D90A3CE4B2A3
:101CAC000135092CEDB2F9D82D01EDB2107B2C4386
:101CBC00092842D900250A38C0B201350928EDB2ED
:101CCC00F9D82D015FFA85FC556892684CEA000042
:101CDC002A43164333431F433C4344EA006013E05A
:101CEC009B6813F040031ED1D370546890689578AC
:101CFC00167820432843557840EA0640127B40EA88
:101D0C00052040EA026018430D4BCA255322B1F559
:101D1C00807F5D625A620CBFD8611862084BFF224B
:101D2C005A62F0BC7047D3781B04DEE7D6783604D1
:101D3C0091E700249BE70027A8E74FF0000CC3E7CE
:101D4C00002800400023012202730360836043607B
:101D5C00704700BF234BB1F5807F0CBFDB691B6A5A
:101D6C002DE9F001DEB203F48008C3F30545C3F39B
:101D7C000624C3F3056103F0804C06F07F074FEA9D
:101D8C00184803F08033977082F8038015705470F4
:101D9C001173C2F808C0536008BB4FEA151C200928
:101DAC000B093F0907EB870706F00F060CEB8C0CB1
:101DBC0005F00F0500EB800004F00F0403EB830328
:101DCC0001F00F0106EB470705EB4C0C04EB400050
:101DDC0001EB4303977082F800C050701373BDE899
:101DEC00F00170470028004070B4164B83B00026F9
:101DFC00CA255324019602465D625C62E1B998687B
:101E0C00110A20EA02029A60184600E042B9C26840
:101E1C00019B0A4001330193019BB3F5005FF5D19F
:101E2C00084BDB680B420CBF00200120054BFF2246
:101E3C005A6203B070BC7047996801200A439A60DB
:101E4C00F4E700BF0028004030B4084B0A43CA2511
:101E5C005324B0F5807F5D625C620CBF5A649A6457
:101E6C00024BFF225A6230BC704700BF0028004072
:101E7C00044BB0F5807F0CBF586C986CC0F30E000F
:101E8C00704700BF00280040074BCA2153225962FB
:101E9C005A629968FF2221F00701996099680843FA
:101EAC0098605A62704700BF00280040054B10B480
:101EBC005321CA24FF225C6259625DF8044B5861BD
:101ECC005A62704700280040014B586980B2704735
:101EDC000028004010B4154B532283B00024CA21B3
:101EEC00019459625A629A68D0B922F480621946F8
:101EFC009A6000E04AB9CA68019B02F004020133FF
:101F0C000193019BB3F5005FF4D1084BD868C0F383
:101F1C008000064BFF225A6203B05DF8044B7047F9
:101F2C0042F4806201209A60F3E700BF0028004071
:101F3C00094B10B45322CA245C625A629C68FF227B
:101F4C0024F480249C609C682143084398605DF8CD
:101F5C00044B5A62704700BF00280040024B98683F
:101F6C0000F48020704700BF00280040094B10B4DB
:101F7C005322CA245C625A629C68FF2224F4E00457
:101F8C009C609C682143084398605DF8044B5A623E
:101F9C00704700BF0028004030B4174C002382B0BB
:101FAC00CA255322656262620193E3685B0615D40D
:101FBC004FF0FF33E36000E04AB9E268019B02F0A6
:101FCC00400201330193019BB3F5005FF4D10A4B3E
:101FDC00DB68C3F380130BB9184607E0064B0843C4
:101FEC009861DA68012022F08002DA60024BFF224D
:101FFC005A6202B030BC70470028004010B41D4932
:10200C00002383B0CA2453224C624A620193CB68EA
:10201C005B061BD44FF0FF33CB6000E04AB9CA68B3
:10202C00019B02F0400201330193019BB3F5005F69
:10203C00F4D1104BDB68C3F380133BB918460D4B3E
:10204C00FF225A6203B05DF8044B704758B9094B34
:10205C009A6822F080029A60064B0120DA6822F01E
:10206C008002DA60EBE7034B9A6842F080029A60D8
:10207C00F2E700BF002800400A4B5322CA215962E4
:10208C005A629A6830B922F400029A60054BFF221A
:10209C005A62704742F400029A60024BFF225A6265
:1020AC00704700BF00280040074BCA2153225962D9
:1020BC005A629968FF2221F40021996099680843BB
:1020CC0098605A62704700BF0028004030B4114D30
:1020DC00CA2453236C626B62EB68DC030AD5EB6891
:1020EC00DB0307D54FF4805301E0013B02D0EC68D1
:1020FC00E403FAD4074BDC68E40308D41143084327
:10210C00D8630120034BFF225A6230BC7047002079
:10211C00F8E700BF002800400B4A10B4936823F482
:10212C00006323F0080359B91843074BCA24532101
:10213C00FF225C6259625DF8044B98605A627047EA
:10214C0043F400631843F0E7002800402DE9F00346
:10215C002C4C4FF0000C236B646B03F48005C3F321
:10216C000549C3F30628C4F3042704F03F0603F023
:10217C007F032D0CC4F3423481F8009081F8018068
:10218C008B70CD7082F803C0577096701470A8BB1A
:10219C000E784C788B7837092509180906F00F064C
:1021AC0004F00F0403F00F0307EB870705EB85051D
:1021BC0000EB800004EB450503EB400006EB470702
:1021CC000F704D7088705578907813782E0904092B
:1021DC00190906EB860605F00F0504EB840400F0E4
:1021EC000F0001EB810103F00F0305EB460600EB3A
:1021FC00440403EB4101567094701170BDE8F00378
:10220C00704700BF00280040014B986B704700BF1F
:10221C0000280040054B1A6C19B142EA40001864C2
:10222C00704722EA40001864704700BF0028004045
:10223C00044B1A6C19B922EA000018647047104359
:10224C001864704700280040044B1A6C22F4C052EA
:10225C001A641A6C10431864704700BF00280040C1
:10226C00044B1A6C22F4E0621A641A6C1043186462
:10227C00704700BF00280040044B1A6C22F4C04287
:10228C001A641A6C10431864704700BF0028004091
:10229C00054B1A6C18B922F080021A64704742F090
:1022AC0080021A64704700BF00280040054B1A6C6E
:1022BC0018B942F400421A64704722F400421A64BE
:1022CC00704700BF00280040064B82B000220192EC
:1022DC000193019B03EB80000190019B196002B0FC
:1022EC00704700BF50280040064B82B0002201927C
:1022FC000193019B03EB80000190019B186802B0D5
:10230C00704700BF50280040044B1A6C22F4802206
:10231C001A641A6C10431864704700BF0028004000
:10232C0030B4254C5323CA2262626362E36882B0E4
:10233C001B070AD5E3681D0707D54FF4005301E0CE
:10234C00013B02D0E2681207FAD41B4BDA6812F098
:10235C0008022AD19C6814F0100406D01046164BC3
:10236C00FF225A6202B030BC704701435322CA2587
:10237C00D96201945D625A62DA68194622F0A002B1
:10238C00DA6000E04AB9CA68019B02F0200201330E
:10239C000193019BB3F5004FF4D1074BD86810F0B3
:1023AC00200004D1FF225A62D9E70020D7E7FF2290
:1023BC005A620120D3E700BF00280040114B10B433
:1023CC005322CA245C625A629A6881B920F00401D3
:1023DC0022EA01029A601A6C00F0040022EA000062
:1023EC001864084BFF225A625DF8044B704720F0CA
:1023FC0004010A439A601A6C00F00400104318643C
:10240C00EFE700BF00280040044A054BD268134098
:10241C0003420CBF00200120704700BF0028004081
:10242C007FFF0100054A064BD168034001F0800193
:10243C0043F0800361EA0303D36070470028004037
:10244C007FFF010010B4840C20FA04F40B4B196CC0
:10245C009A6801F0040101EAD43102400A43DB68B6
:10246C0008D09BB213EA10130CBF002001205DF8BA
:10247C00044B704710465DF8044B70470028004031
:10248C00054BC0F30F10D96840F0800201F08001B9
:10249C0061EA0202DA6070470028004008B5174B69
:1024AC00984212D0164B98421BD0164B984200D033
:1024BC0008BD4FF400400121FFF73AF8BDE8084091
:1024CC004FF400400021FFF733B84FF48050012146
:1024DC00FFF722F8BDE808404FF480500021FFF7C9
:1024EC001BB84FF480400121FFF722F8BDE80840EB
:1024FC004FF480400021FFF71BB800BF00300140B3
:10250C0000380040003C0040F0B40B884C888A88AE
:10251C001C43CB8814430A891C434B898F89224363
:10252C000588CE891A433A43324305F44153134389
:10253C009BB20380838B0A8A23F400631B041B0C5D
:10254C008383F0BC02827047838BF0B523F47B63EA
:10255C0023F00F031B0402221B0C838302848B6861
:10256C00868B934285B005460C46B6B236D08B8826
:10257C006846002B14BF40272027FEF71FFFE38877
:10258C00009AB3F5007F0CBF120AB2FBF7F2A168F8
:10259C0002EB82025200B2FBF1F20532114992B207
:1025AC00A1FB0202D2085108881E80B202F001027F
:1025BC00FD2894BF41EA022202222188608831431F
:1025CC00A78841F400610143A089394313430143B7
:1025DC009BB289B22B84A98305B0F0BD1A46CB8877
:1025EC00EBE700BFCDCCCCCC0023072202820380CA
:1025FC0043808380C380038143818381C38170477F
:10260C00002302228260036043608381704700BF15
:10261C00038829B923F040031B041B0C038070476B
:10262C009BB243F040030380704700BF838B29B9F2
:10263C0023F480631B041B0C838370479BB243F40D
:10264C0080638383704700BF038823F400631B04FB
:10265C001B0C038003889BB219430180704700BF99
:10266C00B1F5804F038805D023F480431B041B0C69
:10267C00038070479BB243F480430380704700BFD4
:10268C004FF6FF639942038804D09BB243F48073E6
:10269C000380704723F480731B041B0C038070476A
:1026AC00838829B923F004031B041B0C8380704717
:1026BC009BB243F004038380704700BF808980B2D3
:1026CC00704700BF81817047038829B923F40053F8
:1026DC001B041B0C038070479BB243F40053038014
:1026EC00704700BF03889BB243F48053038070474C
:1026FC00012914BF008B808A80B27047008A80B297
:10270C00704700BF83889BB21AB923EA010181800C
:10271C0070471943818070470123090903FA01F1BD
:10272C00838889B29BB21AB923EA01018180704770
:10273C0019438180704700BF038919420CBF0020E8
:10274C0001207047C94389B20181704701F00F0322
:10275C00012202FA03F310B484880089A4B280B277
:10276C00184005D009098A4014420CBF00200120F2
:10277C005DF8044B704700BF01F00F0101238B4043
:10278C00DB439BB20381704708B5264B984218D0A7
:10279C00254B984221D0254B98422AD0244B984265
:1027AC0033D0244B984200D008BD4FF48010012147
:1027BC00FEF7BEFEBDE808404FF480100021FEF786
:1027CC00B7BE4FF480400121FEF7A6FEBDE80840DD
:1027DC004FF480400021FEF79FBE4FF400300121E2
:1027EC00FEF7A6FEBDE808404FF400300021FEF7CE
:1027FC009FBE4FF480200121FEF79AFEBDE80840F1
:10280C004FF480200021FEF793BE4FF400200121ED
:10281C00FEF78EFEBDE808404FF400200021FEF7C5
:10282C0087BE00BF00380140004400400048004013
:10283C00004C004000500040038ACA889BB223F42D
:10284C004053134330B50382044682890B89888830
:10285C000D464989034392B20B4322F4B05222F045
:10286C000C029BB21343A381A38AAA899BB223F4C3
:10287C00407385B01343A3826846FEF79FFDA18980
:10288C00039A1A48029B09B2844208BF13462A686D
:10289C00002903EB8303B4BF5200920003EB8303C4
:1028AC001349B3FBF2F3A1FB0352A089520900B206
:1028BC006425002802FB15334FEA02120ADB1B01C8
:1028CC003233A1FB0351C1F343110A4392B222816B
:1028DC0005B030BDDB003233A1FB0301C1F3421163
:1028EC000A4392B2228105B030BD00BF00380140CE
:1028FC001F85EB5100234FF416510C2201604281CD
:10290C008380C38003818381704700BF4A880B8812
:10291C0030B48D88CC881343018A2B43234389B26E
:10292C009BB221F470610B43038230BC704700BF33
:10293C000023038043808380C3807047838929B937
:10294C0023F400531B041B0C838170479BB243F48C
:10295C0000538381704700BF038B03F47F430383D1
:10296C00038B9BB219430183704700BF838919B94C
:10297C00C3F30E03838170476FEA43436FEA5343FB
:10298C009BB28381704700BF838A29B923F400630B
:10299C001B041B0C838270479BB243F4006383823D
:1029AC00704700BFC1F30801818070478088C0F375
:1029BC0008007047038A23F00F031B041B0C0382CF
:1029CC00038A9BB219430182704700BF838929B9DE
:1029DC0023F002031B041B0C838170479BB243F052
:1029EC0002038381704700BF838923F400631B04B7
:1029FC001B0C838183899BB219438181704700BF73
:102A0C00038A23F020031B041B0C0382038A9BB252
:102A1C0019430182704700BF038A29B923F480430C
:102A2C001B041B0C038270479BB243F4804303824C
:102A3C00704700BF83899BB243F0010383817047C9
:102A4C00838A29B923F008031B041B0C838270476B
:102A5C009BB243F008038382704700BF038BDBB249
:102A6C000383038B9BB243EA01210183704700BFB0
:102A7C00838A29B923F020031B041B0C8382704723
:102A8C009BB243F020038382704700BF838A29B92D
:102A9C0023F010031B041B0C838270479BB243F082
:102AAC0010038382704700BF838A23F004031B0446
:102ABC001B0C8382838A9BB219438182704700BFAF
:102ACC00838A29B923F002031B041B0C83827047F1
:102ADC009BB243F002038382704700BF838A9BB290
:102AEC001AB923EA01018182704719438182704728
:102AFC0001F01F0310B4C1F342110124A14204FAE6
:102B0C0003F310D002290CBF1030143004682AB91A
:102B1C0024EA030303605DF8044B7047234303600E
:102B2C005DF8044B70470C30F0E700BF0388194286
:102B3C000CBF002001207047C94389B20180704747
:102B4C0010B4C1F34213012401F01F02A34204FA92
:102B5C0002F217D0022B0CBF038A838A9BB213405C
:102B6C00028892B253B1090A012303FA01F111420E
:102B7C000CBF002001205DF8044B704718465DF82F
:102B8C00044B704783899BB21340E9E7090A012380
:102B9C008B40DB439BB20380704700BF002100F0E9
:102BAC0004B80C4B5B58435004310B480B4B421888
:102BBC009A42FFF4F6AF0A4A00F003B8002342F839
:102BCC00043B084B9A42FFF4F9AFFDF747FB00F0CA
:102BDC000DF87047FC2B0008000000203C00002082
:102BEC003C00002048000020FFF7FEBFFEE700BFBE
:102BFC00030406080C101820300000000000000030
:102C0C000000000001020304060708090048E8015F
:102C1C00030406080C10182030000000000000000F
:0C2C2C000102030401020304060708096A
:0400000508002BA91B
:00000001FF
