:020000040800F2
:1000000000400020F1400008F9030008FD0300084B
:1000100001040008050400080904000800000000AD
:100020000000000000000000000000000D040008B7
:10003000110400080000000015040008190400085D
:100040003D4100083D4100083D4100083D41000898
:100050003D4100083D4100083D4100083D41000888
:100060003D4100083D4100083D4100083D41000878
:100070003D4100083D4100083D4100083D41000868
:100080003D4100083D4100083D4100083D41000858
:100090003D4100083D4100083D4100083D41000848
:1000A0003D4100083D4100083D4100083D41000838
:1000B0003D4100083D4100083D4100083D41000828
:1000C0003D4100083D4100083D4100083D41000818
:1000D0003D4100083D4100083D4100083D41000808
:1000E0003D4100083D4100083D4100083D410008F8
:1000F0003D4100080000000000000000000000007A
:0C01000000000000000000005FF808F1A3
:10010C0040410008000000203C0000203C00002082
:10011C004C00002082B0034600918DF807309DF909
:10012C000730002B0CDA0C499DF8073003F00F0355
:10013C00043B009AD2B21201D2B20B441A7609E0F7
:10014C0006499DF90730009AD2B21201D2B20B4483
:10015C0083F8002302B0704700ED00E000E100E0FE
:10016C0000B583B00190019B013BB3F1807F01D3BB
:10017C0001230FE0094B019A013A5A604FF0FF300E
:10018C000F21FFF7C7FF054B00229A60034B072294
:10019C001A600023184603B05DF804FB10E000E081
:1001AC0000B587B001AB184602F01AFB029A0F4B50
:1001BC00A3FB02139B091846FFF7D2FF00F032F89D
:1001CC00102000F0B5F80346ADF81630142000F0FE
:1001DC000FF80020012100F0EDF8142000F008F8D1
:1001EC000020002100F0E6F8EAE700BFD34D6210D2
:1001FC0082B00190019A044B1A6000BF024B1B683D
:10020C00002BFBD102B070473C000020044B1B6854
:10021C00002B04D0024B1B685A1E014B1A6070470E
:10022C003C00002008B500F031F800F001F808BDE2
:10023C0000B583B0124B1B68002B1ED10520012189
:10024C0002F0E6FB6B46184601F0B2FC0623009365
:10025C0001238DF804306B460A48194601F018FC4E
:10026C004FF4707300936B460748194601F010FC6D
:10027C00034B1B685A1C024B1A6003B05DF804FB5D
:10028C0044000020000002400008024000B589B084
:10029C00244B1B68002B42D10420012102F0B8FB37
:1002AC004FF40070012102F0CFFB6B46184601F0B1
:1002BC007FFC3F23009303238DF8043001238DF83A
:1002CC0005306B461848194601F0E2FB174800F060
:1002DC00BFFA02AB184600F025FB02AB13481946D7
:1002EC0000F0CCFA012000F0FBFB1048012100F0DB
:1002FC0053FB00BF0D484FF4807101F025F8034605
:10030C00002BF7D100BF0948402101F01DF803462E
:10031C00002BF8D0034B1B685A1C024B1A6009B017
:10032C005DF804FB48000020000802400024014056
:10033C0000B585B003468DF807301D481121002209
:10034C00072300F0E7FB1A4800F064FD00BF1848D3
:10035C00022100F0F9FF0346002BF8D0144800F0FE
:10036C00E1FD0346ADF80E309DF8073010481946F4
:10037C000022072300F0CEFB0D4800F04BFD00BF20
:10038C000B48022100F0E0FF0346002BF8D0084890
:10039C0000F0C8FD034641F6B82202FB03F2BDF89B
:1003AC000E3092FBF3F39BB2184605B05DF804FBDC
:1003BC000024014000B583B002460B468DF807209F
:1003CC008DF806309DF80630074802211A4601F0D8
:1003DC0087FC9DF80630044804211A4601F080FC85
:1003EC0000BF03B05DF804FB00000240704700BF83
:1003FC00FEE700BFFEE700BFFEE700BFFEE700BF61
:10040C00704700BF704700BF704700BF08B5FFF7CB
:10041C00FDFE08BD08B5154B144A126842F48072F3
:10042C001A60124A114B9968114B0B4093600F4A9A
:10043C000E4B1B6823F0885323F0011313600B4BF6
:10044C000A4A126822F480221A60084B074A926802
:10045C0022F47D029A60054B0022DA6000F0B2F8BB
:10046C00044B4FF000629A6008BD00BF0038024098
:10047C000CC0FF8800ED00E086B00023059300233C
:10048C000493002303930023029300230193474B0F
:10049C009B6803F00C030593059B0C2B64D801A2FD
:1004AC0052F823F0E50400087505000875050008EE
:1004BC007505000805050008750500087505000898
:1004CC00750500080D050008750500087505000880
:1004DC007505000815050008344B5B6803F4604390
:1004EC005B0B0193019B01334FF4004202FA03F3BF
:1004FC001A462F4B1A6047E02D4B2E4A1A6043E0E8
:10050C002B4B2D4A1A603FE0284B9B6803F4701369
:10051C000493264B9B6803F440030393049B9B0CAE
:10052C00264AD35CDBB20493039B9B0D01330393EC
:10053C001E4B9B6803F480330293029B002B09D162
:10054C00049B1C4A02FB03F2039BB2FBF3F2184B15
:10055C001A6019E0049B184A02FB03F2039BB2FBDE
:10056C00F3F2134B1A600FE0104B5B6803F460431B
:10057C005B0B0193019B01334FF4004202FA03F32E
:10058C001A460B4B1A6000BF084B9B6803F0F00334
:10059C001B090B4AD35CDBB20593054B1A68059B10
:1005AC00DA40034B1A6006B0704700BF00380240B7
:1005BC00000000200024F40000127A000400002047
:1005CC001000002082B000230193002300933E4BC7
:1005DC003D4A126842F001021A603B4B1B6803F063
:1005EC0002030093009B002B03D1019BB3F5A06F7A
:1005FC00F3D1354B1B6803F00203002B02D001230F
:10060C00009301E000230093009B012B5AD12F4B48
:10061C002E4A126842F004021A602C4B2B4A1268C4
:10062C0042F002021A60294B284A126842F0010279
:10063C001A60254B244A526A42F080525A62244B6B
:10064C004FF400621A6000BF214B5B6803F010038B
:10065C00002BF9D11C4B1C4A92689A601A4B1A4A0F
:10066C0092689A60184B184A92689A60164B164A10
:10067C00926822F47D029A60134B134A926842F4FA
:10068C0088029A60104B104A126842F080721A600D
:10069C0000BF0D4B1B6803F00073002BF9D00A4B05
:1006AC00094A926822F003029A60074B064A926844
:1006BC0042F003029A6000BF034B9B6803F00C03EB
:1006CC000C2BF9D102B0704700380240003C0240BC
:1006DC000070004082B00190044A019B43F0BF635C
:1006EC0043F40033D36002B0704700BF00ED00E06C
:1006FC0084B0019000238DF80F3000238DF80E305C
:10070C000F238DF80D30019BDB78002B45D02B4B44
:10071C00DB68DB4303F4E0631B0A8DF80F309DF8B4
:10072C000F30C3F104038DF80E309DF80D209DF8A9
:10073C000F3042FA03F38DF80D30019B5B781A46AB
:10074C009DF80E3002FA03F38DF80F30019B9A7866
:10075C009DF80D301340DAB29DF80F3013438DF82D
:10076C000F309DF80F301B018DF80F30144A019B90
:10077C001B7813449DF80F2083F80023104B019A2B
:10078C0012785209D2B20199097801F01F010120A7
:10079C0000FA01F143F822100EE0094B019A12788D
:1007AC005209D2B20199097801F01F01012000FA17
:1007BC0001F1203243F8221004B0704700ED00E044
:1007CC0000E100E082B001900091054A009B23F00B
:1007DC00604323F07F0301990B43936002B0704791
:1007EC0000ED00E082B002460B468DF807208DF834
:1007FC0006309DF80630002B07D0094B084A1169CA
:10080C009DF807200A431A6107E0054B044A116959
:10081C009DF80720D2430A401A6102B0704700BF0E
:10082C0000ED00E082B00190019B042B06D1074B38
:10083C00064A126842F004021A6005E0034B034AB0
:10084C00126822F004021A6002B0704710E000E057
:10085C0000B583B00190019A074B9A4209D14FF42D
:10086C000070012102F044F94FF40070002102F0F5
:10087C003FF903B05DF804FB0024014084B0019003
:10088C0000910023039300238DF80B30019B5B68D0
:10089C000393039B23F0407323F480730393009B17
:1008AC001B791A02009B1B681343039A134303938F
:1008BC00019B039A5A60019B9B680393039A184B04
:1008CC0013400393009B1A69009BDB681A43009B3F
:1008DC009B681A43009B5B795B001343039A134399
:1008EC000393019B039A9A60019B1B6B0393039BDD
:1008FC0023F0F8730393009B1B7D013BDAB29DF848
:10090C000B3013438DF80B309DF80B301B05039AFD
:10091C0013430393019B039A1A6304B0704700BFFF
:10092C00FDF7FFC082B00190019B00221A60019B71
:10093C0000221A71019B00225A71019B00229A60BD
:10094C00019B4FF04072DA60019B00221A61019BFF
:10095C0001221A7502B0704784B0019000230393F2
:10096C00084B5B680393039B23F440330393019B75
:10097C001B68039A13430393024B039A5A6004B007
:10098C00704700BF0027014082B00190019B0022FC
:10099C001A6002B0704700BF82B001900B468DF810
:1009AC0003309DF80330002B06D0019B9B6843F06D
:1009BC000102019B9A6005E0019B9B6823F00102F8
:1009CC00019B9A6002B0704782B001900B468DF883
:1009DC0003309DF80330002B06D0019B9B6843F03D
:1009EC000402019B9A6005E0019B9B6823F00402C2
:1009FC00019B9A6002B0704784B003900291134639
:100A0C008DF807309DF80730002B06D0039B5A68F1
:100A1C00029B1A43039B5A6006E0039B5A68029B95
:100A2C00DB431A40039B5A6004B0704784B00190BA
:100A3C000B468DF8033000230393019B9B680393B3
:100A4C00039B23F0F00303939DF80330039A1343A5
:100A5C000393019B039A9A6004B0704784B0019091
:100A6C00009100230393019B5B680393039B23F486
:100A7C00400323F400730393039A009B13430393E3
:100A8C00019B039A5A6004B0704700BF82B001907A
:100A9C0013460A46ADF80220ADF80030BDF802202E
:100AAC00019B9A62BDF80020019BDA6202B070478C
:100ABC0084B001900B468DF8033000230393019B07
:100ACC005B680393039B23F01F0303939DF8033090
:100ADC00039A13430393019B039A5A6004B0704723
:100AEC0082B003468DF807309DF80730002B06D0F6
:100AFC00074B074A526842F400025A6005E0044B67
:100B0C00034A526822F400025A6002B0704700BFD8
:100B1C000027014084B001908DF803108DF802205D
:100B2C008DF8013000230393002302939DF80330CA
:100B3C001D2B26D9019BDB6D03939DF80330A3F18C
:100B4C001E0213465B001344072202FA03F30293BE
:100B5C00029BDB43039A134003939DF801109DF80D
:100B6C000330A3F11E0213465B00134401FA03F396
:100B7C000293039A029B13430393019B039ADA6536
:100B8C0077E09DF80330132B26D9019BDB68039388
:100B9C009DF80330A3F1140213465B0013440722A3
:100BAC0002FA03F30293029BDB43039A1340039371
:100BBC009DF801109DF80330A3F1140213465B005D
:100BCC00134401FA03F30293039A029B1343039316
:100BDC00019B039ADA604CE09DF80330092B26D96F
:100BEC00019B1B6903939DF80330A3F10A02134682
:100BFC005B001344072202FA03F30293029BDB43CC
:100C0C00039A134003939DF801109DF80330A3F150
:100C1C000A0213465B00134401FA03F30293039A8E
:100C2C00029B13430393019B039A1A6121E0019BDE
:100C3C005B6903939DF8032013465B001344072262
:100C4C0002FA03F30293029BDB43039A13400393D0
:100C5C009DF801109DF8032013465B00134401FA24
:100C6C0003F30293039A029B13430393019B039A8E
:100C7C005A619DF80230062B24D8019B1B6C039300
:100C8C009DF802305A1E13469B0013441F2202FA91
:100C9C0003F30293029BDB43039A134003939DF8E7
:100CAC0003109DF802305A1E13469B00134401FAA0
:100CBC0003F30293039A029B13430393019B039A3E
:100CCC001A64A4E09DF802300C2B24D8019BDB6B3A
:100CDC0003939DF80230DA1F13469B0013441F2226
:100CEC0002FA03F30293029BDB43039A1340039330
:100CFC009DF803109DF80230DA1F13469B00134435
:100D0C0001FA03F30293039A029B13430393019B8F
:100D1C00039ADA637BE09DF80230122B26D8019BF4
:100D2C009B6B03939DF80230A3F10D0213469B00BD
:100D3C0013441F2202FA03F30293029BDB43039A30
:100D4C00134003939DF803109DF80230A3F10D029C
:100D5C0013469B00134401FA03F30293039A029B7C
:100D6C0013430393019B039A9A6350E09DF802305E
:100D7C00182B26D8019B5B6B03939DF80230A3F1D3
:100D8C00130213469B0013441F2202FA03F302932F
:100D9C00029BDB43039A134003939DF803109DF8C9
:100DAC000230A3F1130213469B00134401FA03F320
:100DBC000293039A029B13430393019B039A5A6376
:100DCC0025E0019B1B6B03939DF80230A3F11902E4
:100DDC0013469B0013441F2202FA03F30293029B57
:100DEC00DB43039A134003939DF803109DF80230E4
:100DFC00A3F1190213469B00134401FA03F3029367
:100E0C00039A029B13430393019B039A1A6304B046
:100E1C00704700BF82B00190019B9B6843F08042F9
:100E2C00019B9A6002B0704784B0019000238DF84A
:100E3C000F30019B9B6803F08043002B03D00123F0
:100E4C008DF80F3002E000238DF80F309DF80F3035
:100E5C00184604B0704700BF82B001900B468DF865
:100E6C0003309DF80330002B06D0019B9B6843F4A4
:100E7C008062019B9A6005E0019B9B6823F4806271
:100E8C00019B9A6002B0704782B001900B468DF8BE
:100E9C0003309DF80330002B06D0019B9B6843F078
:100EAC000202019B9A6005E0019B9B6823F0020201
:100EBC00019B9A6002B0704784B001900B468DF88C
:100ECC0003300023039300230293019B5B6803937D
:100EDC00039B23F4604303939DF80330013B02937F
:100EEC00029B5B03039A13430393019B039A5A607F
:100EFC0004B0704782B001900B468DF803309DF81A
:100F0C000330002B06D0019B5B6843F40062019B0D
:100F1C005A6005E0019B5B6823F40062019B5A60F8
:100F2C0002B0704782B00190019B9B6D9BB218463A
:100F3C0002B0704782B001900B468DF803309DF8DB
:100F4C000330002B06D0019B9B6843F48072019BFD
:100F5C009A6005E0019B9B6823F48072019B9A6068
:100F6C0002B0704782B001900B468DF803309DF8AB
:100F7C000330002B06D0019B9B6843F40072019B4D
:100F8C009A6005E0019B9B6823F40072019B9A60B8
:100F9C0002B0704786B001908DF803108DF80220D6
:100FAC008DF8013000230593002304930023039351
:100FBC009DF803301D2B26D9019BDB6D05939DF805
:100FCC000330A3F11E0213465B001344072202FAFE
:100FDC0003F30493049BDB43059A134005939DF89C
:100FEC0001109DF80330A3F11E0213465B0013445D
:100FFC0001FA03F30493059A049B13430593019B95
:10100C00059ADA6577E09DF80330132B26D9019BFE
:10101C00DB6805939DF80330A3F1140213465B00C3
:10102C001344072202FA03F30493049BDB43059A4F
:10103C00134005939DF801109DF80330A3F11402A1
:10104C0013465B00134401FA03F30493059A049BC3
:10105C0013430593019B059ADA604CE09DF803302D
:10106C00092B26D9019B1B6905939DF80330A3F12D
:10107C000A0213465B001344072202FA03F304939B
:10108C00049BDB43059A134005939DF801109DF8D2
:10109C000330A3F10A0213465B00134401FA03F375
:1010AC000493059A049B13430593019B059A1A61BB
:1010BC0021E0019B5B6905939DF8032013465B00BF
:1010CC001344072202FA03F30493049BDB43059AAF
:1010DC00134005939DF801109DF8032013465B0007
:1010EC00134401FA03F30493059A049B13430593E9
:1010FC00019B059A5A61019B5B6C0593059B03F45C
:10110C0040131B0D0393039BDBB29DF80220D31AF3
:10111C00DBB20233DBB21A4613469B0013441F2288
:10112C0002FA03F30493049BDB43059A13400593E3
:10113C009DF80310039BDBB29DF80220D31ADBB29F
:10114C000233DBB21A4613469B00134401FA03F335
:10115C000493059A049B13430593019B059A5A64C7
:10116C0006B0704784B001900B468DF80330002315
:10117C00039300230293019B5B6C0393039B23F467
:10118C00401303939DF80330013B0293029B1B0514
:10119C00039A13430393019B039A5A6404B0704758
:1011AC0084B0019013460A468DF80320ADF8003048
:1011BC0000230393019B03939DF80320039B13448B
:1011CC000393039BBDF800201A6004B0704700BF66
:1011DC0084B00190009100230393019B9B680393BF
:1011EC00039B23F470230393039A009B13430393F1
:1011FC00019B039A9A6004B0704700BF84B00190C1
:10120C00009100230393019B9B680393039B23F49E
:10121C0040130393039A009B13430393019B039A7C
:10122C009A6004B0704700BF82B00190019B9B682C
:10123C0043F48002019B9A6002B0704784B0019025
:10124C0000238DF80F30019B9B6803F48003002B67
:10125C0003D001238DF80F3002E000238DF80F30FE
:10126C009DF80F30184604B0704700BF82B0019053
:10127C000B468DF803309DF80330002B06D0019BF4
:10128C005B6843F48062019B5A6005E0019B5B68DC
:10129C0023F48062019B5A6002B0704782B00190C7
:1012AC000B468DF803309DF80330002B06D0019BC4
:1012BC005B6843F48052019B5A6005E0019B5B68BC
:1012CC0023F48052019B5A6002B0704784B00190A5
:1012DC000B468DF8033000230393019B03939DF879
:1012EC000320039B134430330393039B1B689BB273
:1012FC00184604B0704700BF84B0019013460A46EC
:10130C00ADF802208DF8013000230393BDF80230B4
:10131C00DBB20393039B012202FA03F303939DF8C0
:10132C000130002B06D0019B5A68039B1A43019B8A
:10133C005A6006E0019B5A68039BDB431A40019BF1
:10134C005A6004B0704700BF84B001900B46ADF8F2
:10135C00023000238DF80F30019B1A68BDF8023063
:10136C001340002B03D001238DF80F3002E0002333
:10137C008DF80F309DF80F30184604B0704700BF41
:10138C0082B001900B46ADF80230BDF80230DA4362
:10139C00019B1A6002B0704786B001900B46ADF805
:1013AC00023000238DF8173000230493002303939D
:1013BC00BDF802301B0A9BB20493019B5A68BDF81E
:1013CC000230DBB2012101FA03F313400393019BBA
:1013DC001A68049B1340002B06D0039B002B03D0F0
:1013EC0001238DF8173002E000238DF817309DF89B
:1013FC001730184606B0704784B001900B46ADF814
:10140C00023000238DF80F30BDF802301B0A9BB25E
:10141C008DF80F309DF80F30DA43019B1A6004B041
:10142C00704700BF82B00190019B1A684FF6FE73A3
:10143C001340019A1360019B00221A60019B002249
:10144C005A60019B00229A60019B0022DA60019A8B
:10145C00414B9A4206D1414B404A526842F00F022E
:10146C005A6077E0019A3E4B9A4206D13B4B3B4A7D
:10147C00526842F0F0025A606CE0019A394B9A4281
:10148C0006D1364B354A526842F470625A6061E0BC
:10149C00019A354B9A4206D1304B304A526842F48D
:1014AC0070425A6056E0019A304B9A4206D12B4B4F
:1014BC002A4A526842F470225A604BE0019A2C4B33
:1014CC009A4206D1254B254A526842F470025A6062
:1014DC0040E0019A274B9A4206D1204B1F4A526892
:1014EC0042F070625A6035E0019A234B9A4206D161
:1014FC00224B224A526842F00F025A602AE0019AAB
:10150C001F4B9A4206D11D4B1C4A526842F0F00206
:10151C005A601FE0019A1B4B9A4206D1174B174A8F
:10152C00526842F470625A6014E0019A164B9A4267
:10153C0006D1124B114A526842F470425A6009E0CB
:10154C00019A124B9A4205D10C4B0C4A526842F448
:10155C0070225A6002B0704708600240006002407E
:10156C001C600240306002404460024058600240FF
:10157C006C600240806002400864024000640240DB
:10158C001C640240306402404464024058640240CF
:10159C0084B00190009100230393019B1B6803937B
:1015AC00039B23F4FF4323F070030393009B9A687F
:1015BC00009B1B6A1A43009B1B691A43009B5B69C7
:1015CC001A43009B9B691A43009BDB691A43009BDF
:1015DC005B6A1A43009B9B6A1343039A134303935E
:1015EC00019B039A1A60009BDA68019B5A60009B6E
:1015FC001A68019B9A60009B5A68019BDA6004B0E0
:10160C00704700BF82B00190019B00221A60019BC1
:10161C0000225A60019B00229A60019B0022DA6032
:10162C00019B00221A61019B00225A61019B00223E
:10163C009A61019B0022DA61019B00221A62019BD4
:10164C0000225A62019B00229A6202B0704700BFCE
:10165C0082B001900B468DF803309DF80330002BBF
:10166C0006D0019B1B6843F00102019B1A6006E047
:10167C00019B1A684FF6FE731340019A136002B077
:10168C00704700BF82B001900B46ADF80230BDF838
:10169C000220019B5A6002B0704700BF82B00190DB
:1016AC00019B5B689BB2184602B0704784B00390F4
:1016BC00029113468DF807309DF80730002B06D0A9
:1016CC00039B1A68029B1A43039B1A6006E0039B58
:1016DC001A68029BDB431A40039B1A6004B07047E4
:1016EC0084B0019000238DF80F3000230293019BEE
:1016FC0003F08053002B03D10B4B1B68029302E0C9
:10170C000A4B1B680293029A019B1340002B03D0D7
:10171C0001238DF80F3002E000238DF80F309DF877
:10172C000F30184604B0704700600240006402405D
:10173C0082B00190019B03F08053002B03D1044B2A
:10174C00019A5A6002E0034B019A5A6002B070474A
:10175C00006002400064024084B0019000238DF8C8
:10176C000F3000230293019B03F08053002B03D115
:10177C000B4B1B68029302E00A4B1B680293029A04
:10178C00019B1340002B03D001238DF80F3002E096
:10179C0000238DF80F309DF80F30184604B07047B9
:1017AC00006002400064024082B00190019B03F093
:1017BC008053002B03D1044B019A5A6002E0034B77
:1017CC00019A5A6002B07047006002400064024007
:1017DC00084B00221A60074B00225A60054B00226E
:1017EC009A60044B0022DA60024B6FF07F425A6120
:1017FC00704700BF0004014084B0019000230393A4
:10180C00314B0393019B9B79002B4DD02E4B2E4AD1
:10181C001168019A1268D2430A401A602A4B2A4A6C
:10182C005168019A1268D2430A405A60019B1B7995
:10183C00039A13440393039B039A1168019A126849
:10184C000A431A60204B204A9168019A1268D243CD
:10185C000A409A601C4B1C4AD168019A1268D24308
:10186C000A40DA60019B5B79102B0ED1164B164A9D
:10187C009168019A12680A439A60134B124AD16814
:10188C00019A12680A43DA601BE00F4B0393019B29
:10189C005B79039A13440393039B039A1168019A8F
:1018AC0012680A431A600CE0019B1B79039A1344DB
:1018BC000393039B039A1168019A1268D2430A405E
:1018CC001A6004B0704700BF0004014082B0019060
:1018DC00019B00221A60019B00221A71019B0C22B1
:1018EC005A71019B00229A7102B0704782B001902C
:1018FC00034B034A1169019A0A431A6102B07047FB
:10190C000004014084B0019000238DF80F30094B86
:10191C005A69019B1340002B03D001238DF80F3023
:10192C0002E000238DF80F309DF80F30184604B0FC
:10193C00704700BF0004014082B00190024B019A35
:10194C005A6102B0704700BF0004014084B001909E
:10195C0000238DF80F30094B5A69019B1340002B63
:10196C0003D001238DF80F3002E000238DF80F30E7
:10197C009DF80F30184604B0704700BF00040140BA
:10198C0082B00190024B019A5A6102B0704700BFBD
:10199C000004014000B583B00190019A344B9A4287
:1019AC0008D10120012101F087F80120002101F06C
:1019BC0083F859E0019A2F4B9A4208D10220012159
:1019CC0001F07AF80220002101F076F84CE0019A3F
:1019DC00294B9A4208D10420012101F06DF8042012
:1019EC00002101F069F83FE0019A244B9A4208D19A
:1019FC000820012101F060F80820002101F05CF8BA
:101A0C0032E0019A1E4B9A4208D11020012101F0BC
:101A1C0053F81020002101F04FF825E0019A194BE2
:101A2C009A4208D14020012101F046F840200021C3
:101A3C0001F042F818E0019A134B9A4208D1802029
:101A4C00012101F039F88020002101F035F80BE07C
:101A5C00019A0E4B9A4207D12020012101F02CF85B
:101A6C002020002101F028F803B05DF804FB00BF32
:101A7C00000002400004024000080240000C02403A
:101A8C000010024000180240001C024000140240EA
:101A9C0086B001900091002305930023049300234A
:101AAC000393002305937CE0059B012202FA03F3C8
:101ABC000493009B1A68049B13400393039A049BA2
:101ACC009A426BD1019B1A68059B5B00032101FABA
:101ADC0003F3DB431A40019B1A60019B1A68009BBD
:101AEC001B791946059B5B0001FA03F31A43019B12
:101AFC001A60009B1B79012B03D0009B1B79022BD6
:101B0C0034D1019B9A68059B5B00032101FA03F316
:101B1C00DB431A40019B9A60019B9A68009B5B799E
:101B2C001946059B5B0001FA03F31A43019B9A606B
:101B3C00019B9B889AB2059B9BB2012101FA03F38E
:101B4C009BB2DB439BB213409AB2019B9A80019BE0
:101B5C009B889AB2009B9B791946059B9BB201FA14
:101B6C0003F39BB213439AB2019B9A80019BDA68F0
:101B7C00059B9BB25B00032101FA03F3DB431A4084
:101B8C00019BDA60019BDA68009BDB791946059BA7
:101B9C005B0001FA03F31A43019BDA60059B0133E6
:101BAC000593059B0F2B7FF67FAF06B0704700BFE8
:101BBC0082B00190019B4FF6FF721A60019B0022CC
:101BCC001A71019B00225A71019B00229A71019B90
:101BDC000022DA7102B0704784B001900B46ADF868
:101BEC0002304FF480330393BDF80220039B134360
:101BFC000393039A019BDA61BDF80220019BDA6121
:101C0C00039A019BDA61019BDB690393019BDB69FE
:101C1C00039304B0704700BF84B001900B46ADF83D
:101C2C00023000238DF80F30019B1B8A9AB2BDF84D
:101C3C00023013409BB2002B03D001238DF80F30E0
:101C4C0002E000238DF80F309DF80F30184604B0D9
:101C5C00704700BF82B00190019B1B8A9BB2184653
:101C6C0002B0704784B001900B46ADF802300023EF
:101C7C008DF80F30019B9B8A9AB2BDF8023013404D
:101C8C009BB2002B03D001238DF80F3002E0002310
:101C9C008DF80F309DF80F30184604B0704700BF18
:101CAC0082B00190019B9B8A9BB2184602B0704790
:101CBC0082B001900B46ADF80230019BBDF80220BA
:101CCC001A8302B0704700BF82B001900B46ADF88A
:101CDC000230019BBDF802205A8302B0704700BF4E
:101CEC0082B0019013460A46ADF802208DF80130FF
:101CFC009DF80130002B04D0019BBDF802201A8303
:101D0C0003E0019BBDF802205A8302B0704700BF6C
:101D1C0082B001900B46ADF80230019BBDF8022059
:101D2C009A8202B0704700BF82B001900B46ADF8AA
:101D3C000230019B9B8A9AB2BDF8023053409AB292
:101D4C00019B9A8202B0704784B0019013460A46F8
:101D5C00ADF802208DF80130002303930023029389
:101D6C009DF80120BDF8023003F007039B0002FA36
:101D7C0003F30393BDF80230DB089BB21A46BDF89F
:101D8C000230DB089BB21946019B083153F8211035
:101D9C00BDF8023003F007039B000F2000FA03F399
:101DAC00DB431940019B083243F82210BDF8023086
:101DBC00DB089BB21A46019B083253F82220039B86
:101DCC0013430293BDF80230DB089BB21A46019B09
:101DDC000832029943F8221004B0704708B501206C
:101DEC00012100F085FE0120002100F081FE08BDDC
:101DFC000A4B00221A60094B00225A60074B002242
:101E0C009A60064B0022DA60044B00221A61034BE5
:101E1C0000225A61014B00229A617047047C0040F9
:101E2C0082B003468DF80730024B9DF807201A60EC
:101E3C0002B0704700000140024B1B6803F4407372
:101E4C00184670470000014082B003468DF80730F9
:101E5C009DF80730002B06D0074B074A526842F01A
:101E6C0001025A6005E0044B034A526822F0010259
:101E7C005A6002B0704700BF0000014010B485B03A
:101E8C0002460B468DF807208DF80630002303938D
:101E9C009DF8063003F003039B000F2202FA03F3B4
:101EAC000393184B9DF806209208D2B215499DF861
:101EBC0006008008C0B2023051F820000399C943D3
:101ECC000140023243F822100E4B9DF80620920876
:101EDC00D2B20C499DF806008008C0B2023051F80D
:101EEC0020009DF807409DF8061001F003018900C1
:101EFC0004FA01F10143023243F8221005B05DF8F7
:101F0C00044B70470000014084B001900023039300
:101F1C00074B1B680393039B23F440330393039AEF
:101F2C00019B13430393024B039A1A6004B070474E
:101F3C00047C004084B00190009100230393214B5A
:101F4C001B680393039A019B13430393019B03F4B4
:101F5C008023002B07D0039B23F00F030393039ADA
:101F6C00009B13430393019B03F40023002B08D025
:101F7C00039B23F0F0030393009B1B01039A134371
:101F8C000393019B03F48013002B08D0039B23F4D1
:101F9C0070630393009B1B02039A13430393019BEF
:101FAC0003F40013002B08D0039B23F4704303931A
:101FBC00009B1B03039A13430393024B039A1A606F
:101FCC0004B07047047C004082B001900B468DF841
:101FDC0003309DF80330002B06D0084B074A1168DC
:101FEC00019A0A431A6006E0044B044A1168019AEC
:101FFC00D2430A401A6002B0704700BF007C004018
:10200C0082B001900091009B002B07D0074B074A30
:10201C001168019AD2430A401A6005E0034B034A47
:10202C001168019A0A431A6002B07047007C0040A4
:10203C0084B001900B468DF8033000230393019B71
:10204C00DB0F0393019B23F0004301939DF80330B6
:10205C00002B10D0039B002B06D0114B104A51685B
:10206C00019A0A435A6018E00D4B0D4A9168019A87
:10207C000A439A6011E0039B002B07D0084B084AD7
:10208C005168019AD2430A405A6006E0044B044A54
:10209C009168019AD2430A409A6004B0704700BF1D
:1020AC00047C004082B003468DF807309DF8073061
:1020BC00002B06D0074B074A526842F000425A6088
:1020CC0005E0044B034A526822F000425A6002B009
:1020DC00704700BF047C004082B0134602468DF866
:1020EC0007200A46ADF804208DF806309DF807301D
:1020FC00012B14D19DF80630002B08D0544B544AB8
:10210C00D168BDF80420D2430A40DA609EE0504BFF
:10211C004F4AD168BDF804200A43DA6096E09DF876
:10212C000730022B16D19DF80630002B09D0484BF6
:10213C00474AD168BDF80420D24312040A40DA6041
:10214C0084E0434B424AD168BDF8042012040A4390
:10215C00DA607BE09DF80730032B14D19DF8063034
:10216C00002B08D03A4B3A4A1169BDF80420D243EF
:10217C000A401A616AE0364B354A1169BDF80420F1
:10218C000A431A6162E09DF80730042B16D19DF8C2
:10219C000630002B09D02E4B2D4A1169BDF80420B6
:1021AC00D24312040A401A6150E0294B284A1169A3
:1021BC00BDF8042012040A431A6147E09DF8073069
:1021CC00052B14D19DF80630002B08D0204B204A4B
:1021DC005169BDF80420D2430A405A6136E01C4BC9
:1021EC001B4A5169BDF804200A435A612EE09DF840
:1021FC000730062B16D19DF80630002B09D0144B56
:10220C00134A5169BDF80420D24312040A405A61A2
:10221C001CE00F4B0E4A5169BDF8042012040A430E
:10222C005A6113E09DF80630002B08D0084B084A81
:10223C009169BDF80420D2430A409A6106E0044B30
:10224C00034A9169BDF804200A439A6102B07047B1
:10225C00047C004008B54FF08050012100F064FC74
:10226C004FF08050002100F05FFC08BD82B00346A7
:10227C008DF80730024B9DF807201A6002B07047AA
:10228C0020000E4284B0019000230393074B1B687F
:10229C000393039B23F0E0030393039A019B1343E3
:1022AC000393024B039A1A6004B07047007000400D
:1022BC0082B003468DF80730024B9DF807201A6058
:1022CC0002B0704710000E4284B001900B468DF89E
:1022DC00033000230393019A044B13440393039B91
:1022EC009DF803201A6004B0704700BFA0000E4296
:1022FC0082B003468DF80730024B9DF807201A6018
:10230C0002B0704728000E4282B003468DF80730A9
:10231C00024B9DF807201A6002B0704724000E4251
:10232C0084B0019000230393084B1B680393039B19
:10233C0023F4C0530393039A019B13430393034B5E
:10234C00039A22F00C021A6004B07047007000402F
:10235C0082B003468DF807309DF80730002B0CD067
:10236C000D4B0D4A126842F001021A600A4B0A4AE0
:10237C00126842F480421A600BE0074B064A12685E
:10238C0022F480421A60044B034A126822F00102C4
:10239C001A6002B0704700BF0070004084B001901A
:1023AC000B468DF80330002303930E4B1B680393ED
:1023BC00039B23F003030393039A019B134303939F
:1023CC00084B039A1A60084B074A126922F0040260
:1023DC001A619DF80330012B01D130BF00E020BF02
:1023EC0004B070470070004000ED00E084B0019034
:1023FC000B468DF8033000230393114B1B6803939A
:10240C00039B23F003030393039A019B134303934E
:10241C000B4B039A1A600B4B0A4A126942F00402E6
:10242C001A619DF80330012B01D130BF00E020BFB1
:10243C00044B044A126922F004021A6104B070477A
:10244C000070004000ED00E0094B094A126842F0B0
:10245C0004021A60064B064A126842F002021A6025
:10246C00044B044A126942F004021A6130BF7047EF
:10247C000070004000ED00E084B0019000238DF866
:10248C000F30094B5A68019B1340002B03D00123DA
:10249C008DF80F3002E000238DF80F309DF80F30CF
:1024AC00184604B0704700BF0070004082B0019025
:1024BC00044B044A1168019A92000A431A6002B054
:1024CC00704700BF00700040114B114A126842F473
:1024DC0080721A600E4A0E4B99680E4B0B4093603B
:1024EC000B4A0B4B1B6823F0885323F0011313602A
:1024FC00074B074A126822F480221A60044B044AE4
:10250C00926822F47D029A60014B0022DA607047D7
:10251C00003802400CC0FF8882B003468DF80730AB
:10252C00044B00221A70034B9DF807201A7002B05E
:10253C00704700BF0238024000B583B000230093FF
:10254C0000238DF8073000238DF80630312000F081
:10255C007FFB03468DF80630009B01330093009BF4
:10256C00B3F5A06F03D09DF80630002BEED03120D0
:10257C0000F06EFB0346002B03D001238DF80730CF
:10258C0002E000238DF807309DF80730184603B0A1
:10259C005DF804FB82B003468DF80730024B9DF8C2
:1025AC0007201A7002B070470738024084B00190BF
:1025BC0000230393074B5B680393039B23F4604353
:1025CC000393039A019B13430393024B039A5A60A0
:1025DC0004B070470038024082B003468DF80730D3
:1025EC00024B9DF807201A6002B07047200047424A
:1025FC0084B003468DF8073000230393084B5B68C7
:10260C000393039B23F4F85303939DF807301B02A9
:10261C00039A13430393024B039A5A6004B0704716
:10262C000038024082B003468DF80730024B9DF80B
:10263C0007201A6002B070470000474282B0034680
:10264C008DF80730044B00221A70034B9DF80720BD
:10265C001A7002B0704700BF3538024082B0034692
:10266C008DF80730024B9DF807201A6002B07047B6
:10267C008006474282B0134602468DF807200A4670
:10268C008DF806208DF80530064B9DF806109DF848
:10269C0005200A43D1B29DF807200A43D2B21A7022
:1026AC0002B070470A38024082B003468DF80730FA
:1026BC00024B9DF807201A6002B070476000474239
:1026CC0082B003468DF80730024B9DF807201A6044
:1026DC0002B070477000474282B003468DF8073055
:1026EC00024B9DF807201A6002B07047AC064742B7
:1026FC0082B002460B468DF807208DF80630054B4C
:10270C009DF807109DF806200A43D2B21A7002B049
:10271C00704700BF0B38024084B001900023039334
:10272C00074B9B680393039B23F003030393039AC8
:10273C00019B13430393024B039A9A6004B07047B6
:10274C0000380240034B9B68DBB203F00C03DBB296
:10275C00184670470038024084B001900023039360
:10276C00074B9B680393039B23F0F0030393039A9B
:10277C00019B13430393024B039A9A6004B0704776
:10278C000038024084B0019000230393074B9B68F0
:10279C000393039B23F4E0630393039A019B13437A
:1027AC000393024B039A9A6004B0704700380240BE
:1027BC0084B0019000230393084B9B680393039B05
:1027CC0023F460530393019BDB00039A134303939D
:1027DC00024B039A9A6004B0704700BF0038024065
:1027EC0088B00190002307930023069300230593E0
:1027FC000023049300230393002302935D4B9B68F7
:10280C0003F00C030793079B0C2B65D801A252F81D
:10281C0023F000BF55280008E5280008E52800082B
:10282C00E528000875280008E5280008E5280008B8
:10283C00E52800087D280008E5280008E5280008A0
:10284C00E5280008852800084A4B5B6803F46043C0
:10285C005B0B0293029B01334FF4004202FA03F329
:10286C001A46019B1A6047E0019B434A1A6043E0F9
:10287C00019B424A1A603FE03E4B9B6803F4701385
:10288C0006933C4B9B6803F440030593069B9B0CFF
:10289C003B4AD35CDBB20693059B9B0D013305933E
:1028AC00344B9B6803F480330493049B002B09D1B5
:1028BC00069B314A02FB03F2059BB2FBF3F2019B30
:1028CC001A6019E0069B2D4A02FB03F2059BB2FB32
:1028DC00F3F2019B1A600FE0264B5B6803F4604334
:1028EC005B0B0293029B01334FF4004202FA03F399
:1028FC001A46019B1A6000BF1E4B9B6803F0F00345
:10290C000793079B1B0907931E4A079B13441B78CD
:10291C00DBB20393019B1A68039BDA40019B5A605C
:10292C00144B9B6803F4E0630793079B1B0A079304
:10293C00144A079B13441B78DBB20393019B5A6820
:10294C00039BDA40019B9A600A4B9B6803F460532B
:10295C000793079BDB0A07930A4A079B13441B78D0
:10296C00DBB20393019B5A68039BDA40019BDA604C
:10297C0008B07047003802400024F40000127A00BE
:10298C00200000202C00002084B001900023039331
:10299C00019B03F44033B3F5403F0FD10F4B1B6841
:1029AC000393039B23F0C0430393019B03F0C043A9
:1029BC00039A13430393094B039A1A60074B074A74
:1029CC00526B22F440325A63044B044A516B019A05
:1029DC0002F440320A435A6304B070470038024094
:1029EC0082B003468DF80730024B9DF807201A6021
:1029FC0002B07047D806474282B003468DF80730C4
:102A0C00024B9DF807201A6002B07047DC06474263
:102A1C0082B001900B468DF803309DF80330002BEB
:102A2C0006D0084B074AD169019A0A43DA6106E0DD
:102A3C00044B044AD169019AD2430A40DA6102B0CC
:102A4C00704700BF0038024082B001900B468DF8F1
:102A5C0003309DF80330002B06D0084B074A116A4F
:102A6C00019A0A431A6206E0044B044A116A019A5D
:102A7C00D2430A401A6202B0704700BF00380240CD
:102A8C0082B001900B468DF803309DF80330002B7B
:102A9C0006D0084B074A516A019A0A435A6206E06B
:102AAC00044B044A516A019AD2430A405A6202B05A
:102ABC00704700BF0038024082B001900B468DF881
:102ACC0003309DF80330002B06D0084B074A1169E0
:102ADC00019A0A431A6106E0044B044A1169019AEF
:102AEC00D2430A401A6102B0704700BF003802405E
:102AFC0082B001900B468DF803309DF80330002B0B
:102B0C0006D0084B074A5169019A0A435A6106E0FC
:102B1C00044B044A5169019AD2430A405A6102B0EB
:102B2C00704700BF0038024082B001900B468DF810
:102B3C0003309DF80330002B06D0084B074A9169EF
:102B4C00019A0A439A6106E0044B044A9169019A7E
:102B5C00D2430A409A6102B0704700BF003802406D
:102B6C0082B001900B468DF803309DF80330002B9A
:102B7C0006D0084B074A916A019A0A439A6206E00A
:102B8C00044B044A916A019AD2430A409A6202B0F9
:102B9C00704700BF0038024082B001900B468DF8A0
:102BAC0003309DF80330002B06D0084B074AD16A3E
:102BBC00019A0A43DA6206E0044B044AD16A019A8C
:102BCC00D2430A40DA6202B0704700BF00380240BC
:102BDC0082B001900B468DF803309DF80330002B2A
:102BEC0006D0084B074A116B019A0A431A6306E098
:102BFC00044B044A116B019AD2430A401A6302B087
:102C0C00704700BF0038024082B002460B468DF878
:102C1C0007208DF806309DF80630002B09D00B4BA1
:102C2C000A4A1278D1B29DF807200A43D2B21A7020
:102C3C000AE0064B054A1278D1B29DF80720D24320
:102C4C00D2B20A40D2B21A7002B070470D380240AC
:102C5C0086B003468DF807300023039300230593B9
:102C6C0000238DF813309DF807305B09DBB203931A
:102C7C00039B012B03D1104B1B68059302E00E4BF9
:102C8C005B6B05939DF8073003F01F030393039BC5
:102C9C00059A22FA03F303F00103002B03D001235E
:102CAC008DF8133002E000238DF813309DF81330AB
:102CBC00184606B0704700BF00380240034B034A69
:102CCC00526B42F080725A63704700BF003802406A
:102CDC0084B003468DF8073000238DF80F30094B74
:102CEC00DA689DF807301340002B03D001238DF8D0
:102CFC000F3002E000238DF80F309DF80F3018468E
:102D0C0004B070470038024082B003468DF807309B
:102D1C00024B9DF807201A7002B070470E38024023
:102D2C0000B585B0002301930023029300238DF896
:102D3C000F30384BCA225A62364B53225A6200F07B
:102D4C00CFF80346002B03D100238DF80F3058E049
:102D5C00304B00221A602F4B42F201125A602D4B5D
:102D6C002C4A926802F007029A602A4BDB6803F047
:102D7C0004030293019B01330193019BB3F5005FA4
:102D8C0002D0029B002BF0D0224BDB6803F0040333
:102D9C00002B03D100238DF80F3032E01D4B9B68C4
:102DAC001C4B00229A601B4B4FF6FF725A61194B59
:102DBC00194A1A61174B00229A61164B0022DA61EC
:102DCC00144B00221A62134B0022DA62114B0022C0
:102DDC00DA63104B00225A640E4B00229A640D4B9E
:102DEC000022DA600B4B00221A6400F0BDF8034697
:102DFC00002B03D100238DF80F3002E001238DF856
:102E0C000F30044BFF225A629DF80F30184605B064
:102E1C005DF804FB00280040FF007F0000B585B082
:102E2C00019000238DF80F301A4BCA225A62194BAD
:102E3C0053225A6200F054F80346002B03D10023AE
:102E4C008DF80F301DE0134B124A926822F04002AD
:102E5C009A60104B0F4A9168019A12680A439A6063
:102E6C000C4B019A92681A610A4B0A4A1169019A31
:102E7C00526812040A431A6100F06CF801238DF8B1
:102E8C000F30044BFF225A629DF80F30184605B0E4
:102E9C005DF804FB0028004082B00190019B0022E9
:102EAC001A60019B7F225A60019BFF229A6002B03C
:102EBC00704700BF82B003468DF807309DF807308D
:102ECC00002B03D0054BFF225A6205E0034BCA22AC
:102EDC005A62024B53225A6202B0704700280040DB
:102EEC0084B00023019300238DF80F30002302934C
:102EFC00174BDB6803F04003002B20D1144B4FF031
:102F0C00FF32DA60124BDB6803F040030293019B43
:102F1C0001330193019BB3F5005F02D0029B002BA0
:102F2C00F0D00B4BDB6803F04003002B03D00123E4
:102F3C008DF80F3006E000238DF80F3002E00123EE
:102F4C008DF80F309DF80F30184604B0704700BF55
:102F5C0000280040034B034AD26822F08002DA605A
:102F6C00704700BF0028004084B000230193002369
:102F7C008DF80F3000230293174BCA225A62164B5E
:102F8C0053225A62144B144AD26822F0A002DA601F
:102F9C00114BDB6803F020030293019B0133019377
:102FAC00019BB3F5004F02D0029B002BF0D00A4BD3
:102FBC00DB6803F02003002B03D001238DF80F30C6
:102FCC0002E000238DF80F30034BFF225A629DF86C
:102FDC000F30184604B070470028004000B585B08B
:102FEC0003468DF8073000238DF80F30164BCA229C
:102FFC005A62154B53225A62FFF772FF0346002B9D
:10300C0003D100238DF80F3015E09DF80730002B0D
:10301C0006D00D4B0C4A926842F010029A6005E003
:10302C00094B094A926822F010029A60FFF792FF4E
:10303C0001238DF80F30044BFF225A629DF80F309C
:10304C00184605B05DF804FB0028004082B003462A
:10305C008DF807300D4BCA225A620C4B53225A6220
:10306C009DF80730002B06D0084B084A926842F0B6
:10307C0020029A6005E0054B044A926802F0DF02D8
:10308C009A60024BFF225A6202B07047002800403F
:10309C0010B584B0019000910023039300238DF8A8
:1030AC000B30019B002B09D13F4B9B6803F0400375
:1030BC00002B14D1009B0022DA7010E03A4B9B6875
:1030CC0003F04003002B07D0009B1B78184600F040
:1030DC00EBFF0346039302E0009B0022DA70019B96
:1030EC00002B0FD0009B1B781A04009B5B781B02F3
:1030FC001A43009B9B781A43009BDB781B041343F9
:10310C0003931BE0009B1B78184600F0ABFF0346B3
:10311C001C04009B5B78184600F0A4FF03461B02BE
:10312C001C43009B9B78184600F09CFF034644EA26
:10313C000302009BDB781B04134303931A4BCA2234
:10314C005A62194B53225A62FFF7CAFE0346002BF0
:10315C0003D100238DF80B301EE0134A039B03F0C0
:10316C007F3323F0FE431360FFF7F4FE0E4B9B6896
:10317C0003F02003002B0CD1FFF7F6FE0346002BC7
:10318C0003D100238DF80B3006E001238DF80B30B2
:10319C0002E001238DF80B30034BFF225A629DF89D
:1031AC000B30184604B010BD0028004082B00190CE
:1031BC00019B0022DA70019B00221A70019B0022F5
:1031CC005A70019B00229A7002B0704700B585B00E
:1031DC000190009100230393214B1B6803F07F3374
:1031EC0023F0FE430393039B03F47C131B0CDAB212
:1031FC00009B1A70039B03F4FE431B0ADAB2009B7C
:10320C005A70039BDBB203F07F03DAB2009B9A7017
:10321C00039B03F480031B0CDAB2009BDA70019B56
:10322C00002B1AD1009B1B78184600F03DFF03467B
:10323C001A46009B1A70009B5B78184600F034FF0E
:10324C0003461A46009B5A70009B9B78184600F068
:10325C002BFF03461A46009B9A7005B05DF804FBE1
:10326C000028004082B000230193044B9B6A019319
:10327C00024B5B68019B184602B070470028004067
:10328C0010B584B0019000910023039300238DF8B6
:10329C000B30019B002B0ED1009B5B7803F01003CD
:1032AC00002B08D0009B5B7823F01003DBB20A33B1
:1032BC00DAB2009B5A70019B002B0DD0009B5B78FF
:1032CC00184600F0F1FE03460393009B9B781846CA
:1032DC0000F0EAFE03460393019B002B0FD0009BEA
:1032EC00DB781A04009B5B781B021A43009B9B78CB
:1032FC001A43009B1B785B03134303931BE0009B57
:10330C00DB78184600F0AEFE03461C04009B5B788D
:10331C00184600F0A7FE03461B021C43009B9B783B
:10332C00184600F09FFE034644EA0302009B1B78FC
:10333C005B03134303931B4BCA225A62194B532250
:10334C005A62FFF7CDFD0346002B03D100238DF805
:10335C000B301EE0134A039B23F07F4323F0C00382
:10336C005360FFF7F7FD0F4B9B6803F02003002B16
:10337C000CD1FFF7F9FD0346002B03D100238DF888
:10338C000B3006E001238DF80B3002E001238DF8A1
:10339C000B30044BFF225A629DF80B30184604B0D8
:1033AC0010BD00BF0028004082B00190019B01229B
:1033BC001A70019B01229A70019B01225A70019B89
:1033CC000022DA7002B0704700B585B00190009110
:1033DC0000230393214B5B6823F07F4323F0C0034E
:1033EC000393039B03F47F031B0CDAB2009BDA708C
:1033FC00039B03F4F8531B0ADAB2009B5A70039B2D
:10340C00DBB203F03F03DAB2009B9A70039B03F428
:10341C0060435B0BDAB2009B1A70019B002B1AD134
:10342C00009BDB78184600F03FFE03461A46009BD3
:10343C00DA70009B5B78184600F036FE03461A469D
:10344C00009B5A70009B9B78184600F02DFE03469B
:10345C001A46009B9A7005B05DF804FB00280040EA
:10346C0010B586B003900291019200230593039B43
:10347C00002B09D1464B9B6803F04003002B27D14E
:10348C00019B0022DA7023E0414B9B6803F0400360
:10349C00002B07D0019B1B78184600F005FE034655
:1034AC00059302E0019B0022DA70019B9B68002BC4
:1034BC0007D1019B1B7B184600F0F6FD03460593D4
:1034CC0006E0019B1B7B184600F0EEFD03460593BE
:1034DC00039B002B19D0019B1B781A04019B5B7872
:1034EC001B021A43019B9B781A43019BDB781B043C
:1034FC001A43019B1B7B1B061A43019B9B681A43B7
:10350C00019B5B68134305932BE0019B1B781846CA
:10351C0000F0A8FD03461C04019B5B78184600F0E4
:10352C00A1FD03461B021C43019B9B78184600F02F
:10353C0099FD034644EA0302019BDB781B0442EA33
:10354C000304019B1B7B184600F08CFD03461B06F5
:10355C0044EA0302019B9B681A43019B5B6813437B
:10356C0005930B4BCA225A62094B53225A62029B97
:10357C00B3F5807F03D1064B059ADA6102E0044B68
:10358C00059A1A62024BFF225A6206B010BD00BFA8
:10359C000028004082B00190019B0022DA70019B50
:1035AC0000221A70019B00225A70019B00229A7013
:1035BC00019B00229A60019B01221A73019B00223D
:1035CC005A6002B0704700BF00B587B003900291FB
:1035DC00019200230593029BB3F5807F03D12F4BFF
:1035EC00DB69059302E02D4B1B6A0593059B03F4E5
:1035FC007C131B0CDAB2019B1A70059B03F4FE437F
:10360C001B0ADAB2019B5A70059BDBB203F07F03F5
:10361C00DAB2019B9A70059B03F480031B0CDAB29F
:10362C00019BDA70059B03F07C531B0EDAB2019BF5
:10363C001A73059B03F08042019B9A60059B03F073
:10364C008032019B5A60039B002B23D1019B1B787A
:10365C00184600F029FD03461A46019B1A70019B7F
:10366C005B78184600F020FD03461A46019B5A7001
:10367C00019B9B78184600F017FD03461A46019BE8
:10368C009A70019B1B7B184600F00EFD03461A46F0
:10369C00019B1A7307B05DF804FB00BF00280040C3
:1036AC0086B001900B468DF8033000230393002362
:1036BC00049300238DF81730204BCA225A621F4BFB
:1036CC0053225A629DF80330002B09D01B4B1B4A26
:1036DC009168019A0A439A6001238DF8173024E00F
:1036EC00164B164A9168019AD2430A409A60134BC2
:1036FC00DA68019B1B0A13400493039B0133039369
:10370C00039BB3F5005F02D0049B002BEFD00B4B57
:10371C00DA68019B1B0A1340002B03D100238DF8A0
:10372C00173002E001238DF81730044BFF225A6248
:10373C009DF81730184606B0704700BF00280040AF
:10374C0086B0039002910192002305930C4BCA2280
:10375C005A620B4B53225A62029A019B13430593F4
:10376C00039BB3F5807F03D1054B059A5A6402E0A5
:10377C00034B059A9A64024BFF225A6206B07047BB
:10378C000028004084B0019000230393019BB3F503
:10379C00807F05D1074B5B6CC3F30E03039304E0EE
:1037AC00044B9B6CC3F30E030393039B184604B0AA
:1037BC00704700BF0028004082B001900B4BCA221A
:1037CC005A620A4B53225A62084B084A926822F0FA
:1037DC0007029A60054B054A9168019A0A439A6060
:1037EC00024BFF225A6202B0704700BF0028004013
:1037FC0082B00190064BCA225A62054B53225A6280
:10380C00034B019A5A61024BFF225A6202B0704775
:10381C0000280040024B5B699BB21846704700BF02
:10382C000028004086B003468DF807300023039330
:10383C000023049300238DF817301F4BCA225A62C1
:10384C001D4B53225A629DF80730002B09D01A4B9E
:10385C00194A926842F480629A6001238DF81730FD
:10386C0021E0154B144A926822F480629A60124B44
:10387C00DB6803F004030493039B01330393039B62
:10388C00B3F5005F02D0049B002BF0D00A4BDB6831
:10389C0003F00403002B03D100238DF8173002E052
:1038AC0001238DF81730044BFF225A629DF8173014
:1038BC00184606B0704700BF0028004082B0019047
:1038CC0000910C4BCA225A620A4B53225A62094B82
:1038DC00084A926822F480229A60064B054A916845
:1038EC000198009A02430A439A60024BFF225A62E3
:1038FC0002B0704700280040024B9B6803F4802301
:10390C00184670470028004082B0019000910C4B83
:10391C00CA225A620A4B53225A62094B084A9268CD
:10392C0022F4E0029A60064B054A91680198009ACD
:10393C0002430A439A60024BFF225A6202B070475C
:10394C000028004000B585B00190009100238DF84F
:10395C000F30114BCA225A620F4B53225A62FFF797
:10396C00BFFA0346002B03D100238DF80F3009E07A
:10397C00094B0199009A0A439A61FFF7EBFA01236C
:10398C008DF80F30044BFF225A629DF80F30184609
:10399C0005B05DF804FB00BF0028004000B585B001
:1039AC0003468DF8073000238DF80F30164BCA22D2
:1039BC005A62154B53225A62FFF792FA0346002BB8
:1039CC0003D100238DF80F3015E09DF80730002B44
:1039DC0006D00D4B0C4A926842F080029A6005E0CA
:1039EC00094B094A926822F080029A60FFF7B2FAFA
:1039FC0001238DF80F30044BFF225A629DF80F30D3
:103A0C00184605B05DF804FB0028004082B0034660
:103A1C008DF807300D4BCA225A620C4B53225A6256
:103A2C009DF80730002B06D0084B084A926842F4E8
:103A3C0000029A6005E0054B044A926822F40002E9
:103A4C009A60024BFF225A6202B070470028004075
:103A5C0082B001900B4BCA225A620A4B53225A6213
:103A6C00084B084A926822F400229A60054B054ADA
:103A7C009168019A0A439A60024BFF225A6202B083
:103A8C00704700BF0028004086B00390029101925D
:103A9C0000238DF81730002304931B4BCA225A6263
:103AAC00194B53225A62184BDB6803F48033002BFA
:103ABC000DD002E0049B01330493134BDB6803F439
:103ACC008033002B03D0049BB3F5805FF2D10E4BF7
:103ADC00DB6803F48033002B0AD10B4B0399029A59
:103AEC001143019A0A43DA6301238DF8173002E07F
:103AFC0000238DF81730044BFF225A629DF81730C3
:103B0C00184606B0704700BF0028004084B00190F2
:103B1C000B468DF8033000230393124B9B6823F460
:103B2C00006323F0080303939DF80330002B06D0A9
:103B3C00019A039B134343F40063039303E0039A3A
:103B4C00019B13430393074BCA225A62054B532222
:103B5C005A62044B039A9A60024BFF225A6204B0D9
:103B6C00704700BF0028004000B587B00390029159
:103B7C00019200230593002304933F4B1B6B03F02E
:103B8C007F3323F0FE4305933B4B5B6B23F07F436A
:103B9C0023F0C0030493059B03F47C131B0CDAB2D3
:103BAC00029B1A70059B03F4FE431B0ADAB2029BBC
:103BBC005A70059BDBB203F07F03DAB2029B9A705A
:103BCC00059B03F480031B0CDAB2029BDA70019B99
:103BDC000022DA70049B03F4F8531B0ADAB2019B3F
:103BEC005A70049BDBB203F03F03DAB2019B9A706C
:103BFC00049B03F460435B0BDAB2019B1A70039BCA
:103C0C00002B35D1029B1B78184600F04DFA034669
:103C1C001A46029B1A70029B5B78184600F044FA15
:103C2C0003461A46029B5A70029B9B78184600F07A
:103C3C003BFA03461A46029B9A70019B5B78184626
:103C4C0000F032FA03461A46019B5A70019B9B788E
:103C5C00184600F029FA03461A46019B9A70019BFC
:103C6C001B78184600F020FA03461A46019B1A707E
:103C7C0007B05DF804FB00BF00280040014B9B6BB4
:103C8C00184670470028004082B001900091009BBC
:103C9C00002B08D1084B084A116C019A5200D243F0
:103CAC000A401A6406E0044B034A116C019A520054
:103CBC000A431A6402B070470028004082B0019099
:103CCC000B468DF803309DF80330002B06D0084BC3
:103CDC00074A116C019A0A431A6406E0044B044A21
:103CEC00116C019AD2430A401A6402B0704700BFAB
:103CFC000028004082B00190064B064A126C22F458
:103D0C00C0521A64034B034A116C019A0A431A6499
:103D1C0002B070470028004082B00190064B064A62
:103D2C00126C22F4E0621A64034B034A116C019A80
:103D3C000A431A6402B070470028004082B0019018
:103D4C00064B064A126C22F4C0421A64034B034A17
:103D5C00116C019A0A431A6402B0704700280040A3
:103D6C0082B003468DF807309DF80730002B06D043
:103D7C00074B074A126C42F080021A6405E0044BB0
:103D8C00034A126C22F080021A6402B0704700BF22
:103D9C000028004082B003468DF807309DF80730AC
:103DAC00002B06D0074B074A126C22F400421A640F
:103DBC0005E0044B034A126C42F400421A6402B050
:103DCC00704700BF0028004084B001900091002390
:103DDC000393064B0393019B9A00039B1344039399
:103DEC00039B009A1A6004B0704700BF5028004033
:103DFC0084B0019000230393054B0393019B9A001D
:103E0C00039B13440393039B1B68184604B0704731
:103E1C005028004082B00190064B064A126C22F4E6
:103E2C0080221A64034B034A116C019A0A431A64E8
:103E3C0002B070470028004000B585B00190009199
:103E4C0000238DF80F3000230293244BCA225A62B0
:103E5C00224B53225A62214BDB6803F00803002BE0
:103E6C000DD002E0029B013302931C4BDB6803F084
:103E7C000803002B03D0029BB3F5005FF2D1174B64
:103E8C00DB6803F00803002B1BD1144B9B6803F079
:103E9C001003002B11D1114B0099019A0A43DA62DD
:103EAC00FFF762F80346002B03D100238DF80F3087
:103EBC000AE001238DF80F3006E000238DF80F3057
:103ECC0002E000238DF80F30044BFF225A629DF85C
:103EDC000F30184605B05DF804FB00BF0028004009
:103EEC0082B001900B468DF80330194BCA225A62EE
:103EFC00174B53225A629DF80330002B10D0144BF1
:103F0C00134A9168019A22F004020A439A60104BFA
:103F1C000F4A116C019A02F004020A431A6411E070
:103F2C000B4B0B4A9168019A22F00402D2430A40CF
:103F3C009A60074B064A116C019A02F00402D243B4
:103F4C000A401A64024BFF225A6202B0704700BF4B
:103F5C000028004084B0019000238DF80F3000231E
:103F6C0002930B4BDA680B4B13400293029A019BA2
:103F7C001340002B03D001238DF80F3002E00023F7
:103F8C008DF80F309DF80F30184604B0704700BF05
:103F9C00002800407FFF010082B00190074A019980
:103FAC00074B0B4043F08003D943044BDB6803F011
:103FBC0080030B43D36002B0704700BF0028004061
:103FCC007FFF010086B0019000238DF8173000238D
:103FDC00049300230393164B1B6C03F0040304930C
:103FEC00134B9A68019B1A40019B9B0C019921FA77
:103FFC0003F3D90B049B0B40134303930C4BDA686C
:10400C00019B1B0913400493039B002B07D0049BBB
:10401C009BB2002B03D001238DF8173002E0002354
:10402C008DF817309DF81730184606B0704700BF52
:10403C000028004084B0019000230393019B1B09CE
:10404C000393074B039A92B242F08002D143044A85
:10405C00D26802F080020A43DA6004B0704700BFF5
:10406C000028004084B003468DF8073000238DF8FB
:10407C000F3009E09DF80F3001338DF80F309DF8AB
:10408C0007300A3B8DF807309DF80730092BF1D823
:10409C009DF80F301B01DAB29DF807301343DBB2E9
:1040AC00184604B0704700BF84B003468DF8073043
:1040BC0000238DF80F309DF807301B09DBB21A4630
:1040CC00920013445B008DF80F309DF8073003F01D
:1040DC000F03DAB29DF80F301344DBB2184604B06C
:1040EC00704700BF002100F004B80C4B5B584350E4
:1040FC0004310B480B4B42189A42FFF4F6AF0A4AB4
:10410C0000F003B8002342F8043B084B9A42FFF43A
:10411C00F9AFFCF77FF9FCF743F870474041000812
:10412C00000000203C0000203C0000204C0000203F
:04413C00FFF7FEBFCC
:104140000048E801030406080C10182030000000A5
:104150000000000000000000010203040607080937
:10416000030406080C1018203000000000000000B6
:0C41700001020304010203040607080911
:04000005080040F1BE
:00000001FF
